{
  "contractName": "EscrowContract",
  "abi": [
    {
      "inputs": [
        {
          "internalType": "address",
          "name": "_landRegistryAddress",
          "type": "address"
        },
        {
          "internalType": "address",
          "name": "_feeCollector",
          "type": "address"
        }
      ],
      "stateMutability": "nonpayable",
      "type": "constructor"
    },
    {
      "anonymous": false,
      "inputs": [
        {
          "indexed": false,
          "internalType": "uint256",
          "name": "escrowId",
          "type": "uint256"
        },
        {
          "indexed": false,
          "internalType": "string",
          "name": "agreementHash",
          "type": "string"
        }
      ],
      "name": "AgreementUpdated",
      "type": "event"
    },
    {
      "anonymous": false,
      "inputs": [
        {
          "indexed": false,
          "internalType": "uint256",
          "name": "escrowId",
          "type": "uint256"
        },
        {
          "indexed": false,
          "internalType": "address",
          "name": "raisedBy",
          "type": "address"
        },
        {
          "indexed": false,
          "internalType": "string",
          "name": "reason",
          "type": "string"
        }
      ],
      "name": "DisputeRaised",
      "type": "event"
    },
    {
      "anonymous": false,
      "inputs": [
        {
          "indexed": false,
          "internalType": "uint256",
          "name": "escrowId",
          "type": "uint256"
        },
        {
          "indexed": false,
          "internalType": "address",
          "name": "resolver",
          "type": "address"
        },
        {
          "indexed": false,
          "internalType": "string",
          "name": "resolution",
          "type": "string"
        }
      ],
      "name": "DisputeResolved",
      "type": "event"
    },
    {
      "anonymous": false,
      "inputs": [
        {
          "indexed": false,
          "internalType": "uint256",
          "name": "escrowId",
          "type": "uint256"
        },
        {
          "indexed": false,
          "internalType": "string",
          "name": "reason",
          "type": "string"
        }
      ],
      "name": "EscrowCancelled",
      "type": "event"
    },
    {
      "anonymous": false,
      "inputs": [
        {
          "indexed": false,
          "internalType": "uint256",
          "name": "escrowId",
          "type": "uint256"
        }
      ],
      "name": "EscrowCompleted",
      "type": "event"
    },
    {
      "anonymous": false,
      "inputs": [
        {
          "indexed": false,
          "internalType": "uint256",
          "name": "escrowId",
          "type": "uint256"
        },
        {
          "indexed": false,
          "internalType": "address",
          "name": "seller",
          "type": "address"
        }
      ],
      "name": "EscrowConfirmed",
      "type": "event"
    },
    {
      "anonymous": false,
      "inputs": [
        {
          "indexed": false,
          "internalType": "uint256",
          "name": "escrowId",
          "type": "uint256"
        },
        {
          "indexed": false,
          "internalType": "uint256",
          "name": "landId",
          "type": "uint256"
        },
        {
          "indexed": false,
          "internalType": "address",
          "name": "buyer",
          "type": "address"
        },
        {
          "indexed": false,
          "internalType": "address",
          "name": "seller",
          "type": "address"
        },
        {
          "indexed": false,
          "internalType": "uint256",
          "name": "amount",
          "type": "uint256"
        }
      ],
      "name": "EscrowCreated",
      "type": "event"
    },
    {
      "anonymous": false,
      "inputs": [
        {
          "indexed": false,
          "internalType": "uint256",
          "name": "escrowId",
          "type": "uint256"
        }
      ],
      "name": "EscrowRefunded",
      "type": "event"
    },
    {
      "anonymous": false,
      "inputs": [
        {
          "indexed": false,
          "internalType": "uint256",
          "name": "escrowId",
          "type": "uint256"
        },
        {
          "indexed": false,
          "internalType": "enum EscrowContract.EscrowState",
          "name": "oldState",
          "type": "uint8"
        },
        {
          "indexed": false,
          "internalType": "enum EscrowContract.EscrowState",
          "name": "newState",
          "type": "uint8"
        }
      ],
      "name": "EscrowStateChanged",
      "type": "event"
    },
    {
      "anonymous": false,
      "inputs": [
        {
          "indexed": true,
          "internalType": "address",
          "name": "previousOwner",
          "type": "address"
        },
        {
          "indexed": true,
          "internalType": "address",
          "name": "newOwner",
          "type": "address"
        }
      ],
      "name": "OwnershipTransferred",
      "type": "event"
    },
    {
      "anonymous": false,
      "inputs": [
        {
          "indexed": false,
          "internalType": "uint256",
          "name": "escrowId",
          "type": "uint256"
        },
        {
          "indexed": false,
          "internalType": "uint256",
          "name": "amount",
          "type": "uint256"
        },
        {
          "indexed": false,
          "internalType": "string",
          "name": "reason",
          "type": "string"
        }
      ],
      "name": "PartialRefundIssued",
      "type": "event"
    },
    {
      "inputs": [
        {
          "internalType": "uint256",
          "name": "",
          "type": "uint256"
        },
        {
          "internalType": "uint256",
          "name": "",
          "type": "uint256"
        }
      ],
      "name": "escrowStateHistory",
      "outputs": [
        {
          "internalType": "enum EscrowContract.EscrowState",
          "name": "",
          "type": "uint8"
        }
      ],
      "stateMutability": "view",
      "type": "function",
      "constant": true
    },
    {
      "inputs": [
        {
          "internalType": "uint256",
          "name": "",
          "type": "uint256"
        },
        {
          "internalType": "uint256",
          "name": "",
          "type": "uint256"
        }
      ],
      "name": "escrowStateTimestamps",
      "outputs": [
        {
          "internalType": "uint256",
          "name": "",
          "type": "uint256"
        }
      ],
      "stateMutability": "view",
      "type": "function",
      "constant": true
    },
    {
      "inputs": [
        {
          "internalType": "uint256",
          "name": "",
          "type": "uint256"
        }
      ],
      "name": "escrows",
      "outputs": [
        {
          "internalType": "uint256",
          "name": "landId",
          "type": "uint256"
        },
        {
          "internalType": "address",
          "name": "buyer",
          "type": "address"
        },
        {
          "internalType": "address",
          "name": "seller",
          "type": "address"
        },
        {
          "internalType": "uint256",
          "name": "amount",
          "type": "uint256"
        },
        {
          "internalType": "uint256",
          "name": "createdAt",
          "type": "uint256"
        },
        {
          "internalType": "uint256",
          "name": "completedAt",
          "type": "uint256"
        },
        {
          "internalType": "uint256",
          "name": "deadline",
          "type": "uint256"
        },
        {
          "internalType": "string",
          "name": "agreementHash",
          "type": "string"
        },
        {
          "internalType": "string",
          "name": "contactInfo",
          "type": "string"
        },
        {
          "internalType": "enum EscrowContract.EscrowState",
          "name": "state",
          "type": "uint8"
        },
        {
          "internalType": "string",
          "name": "cancelReason",
          "type": "string"
        },
        {
          "internalType": "string",
          "name": "disputeReason",
          "type": "string"
        },
        {
          "internalType": "address",
          "name": "disputeRaisedBy",
          "type": "address"
        },
        {
          "internalType": "uint256",
          "name": "disputeRaisedAt",
          "type": "uint256"
        },
        {
          "internalType": "bool",
          "name": "isPartialRefund",
          "type": "bool"
        },
        {
          "internalType": "uint256",
          "name": "refundAmount",
          "type": "uint256"
        }
      ],
      "stateMutability": "view",
      "type": "function",
      "constant": true
    },
    {
      "inputs": [],
      "name": "feeCollector",
      "outputs": [
        {
          "internalType": "address",
          "name": "",
          "type": "address"
        }
      ],
      "stateMutability": "view",
      "type": "function",
      "constant": true
    },
    {
      "inputs": [],
      "name": "landRegistry",
      "outputs": [
        {
          "internalType": "contract LandRegistry",
          "name": "",
          "type": "address"
        }
      ],
      "stateMutability": "view",
      "type": "function",
      "constant": true
    },
    {
      "inputs": [],
      "name": "owner",
      "outputs": [
        {
          "internalType": "address",
          "name": "",
          "type": "address"
        }
      ],
      "stateMutability": "view",
      "type": "function",
      "constant": true
    },
    {
      "inputs": [],
      "name": "platformFeePercent",
      "outputs": [
        {
          "internalType": "uint256",
          "name": "",
          "type": "uint256"
        }
      ],
      "stateMutability": "view",
      "type": "function",
      "constant": true
    },
    {
      "inputs": [],
      "name": "renounceOwnership",
      "outputs": [],
      "stateMutability": "nonpayable",
      "type": "function"
    },
    {
      "inputs": [
        {
          "internalType": "address",
          "name": "newOwner",
          "type": "address"
        }
      ],
      "name": "transferOwnership",
      "outputs": [],
      "stateMutability": "nonpayable",
      "type": "function"
    },
    {
      "inputs": [
        {
          "internalType": "address",
          "name": "",
          "type": "address"
        },
        {
          "internalType": "uint256",
          "name": "",
          "type": "uint256"
        }
      ],
      "name": "userEscrows",
      "outputs": [
        {
          "internalType": "uint256",
          "name": "",
          "type": "uint256"
        }
      ],
      "stateMutability": "view",
      "type": "function",
      "constant": true
    },
    {
      "inputs": [
        {
          "internalType": "uint256",
          "name": "_feePercent",
          "type": "uint256"
        }
      ],
      "name": "updatePlatformFee",
      "outputs": [],
      "stateMutability": "nonpayable",
      "type": "function"
    },
    {
      "inputs": [
        {
          "internalType": "address",
          "name": "_feeCollector",
          "type": "address"
        }
      ],
      "name": "updateFeeCollector",
      "outputs": [],
      "stateMutability": "nonpayable",
      "type": "function"
    },
    {
      "inputs": [
        {
          "internalType": "uint256",
          "name": "_landId",
          "type": "uint256"
        },
        {
          "internalType": "uint256",
          "name": "_durationDays",
          "type": "uint256"
        },
        {
          "internalType": "string",
          "name": "_contactInfo",
          "type": "string"
        },
        {
          "internalType": "string",
          "name": "_agreementHash",
          "type": "string"
        }
      ],
      "name": "createEscrow",
      "outputs": [
        {
          "internalType": "uint256",
          "name": "",
          "type": "uint256"
        }
      ],
      "stateMutability": "payable",
      "type": "function",
      "payable": true
    },
    {
      "inputs": [
        {
          "internalType": "uint256",
          "name": "_escrowId",
          "type": "uint256"
        }
      ],
      "name": "confirmEscrow",
      "outputs": [],
      "stateMutability": "nonpayable",
      "type": "function"
    },
    {
      "inputs": [
        {
          "internalType": "uint256",
          "name": "_escrowId",
          "type": "uint256"
        }
      ],
      "name": "completeEscrow",
      "outputs": [],
      "stateMutability": "nonpayable",
      "type": "function"
    },
    {
      "inputs": [
        {
          "internalType": "uint256",
          "name": "_escrowId",
          "type": "uint256"
        },
        {
          "internalType": "string",
          "name": "_reason",
          "type": "string"
        }
      ],
      "name": "cancelEscrow",
      "outputs": [],
      "stateMutability": "nonpayable",
      "type": "function"
    },
    {
      "inputs": [
        {
          "internalType": "uint256",
          "name": "_escrowId",
          "type": "uint256"
        }
      ],
      "name": "refundEscrow",
      "outputs": [],
      "stateMutability": "nonpayable",
      "type": "function"
    },
    {
      "inputs": [
        {
          "internalType": "uint256",
          "name": "_escrowId",
          "type": "uint256"
        },
        {
          "internalType": "string",
          "name": "_newAgreementHash",
          "type": "string"
        }
      ],
      "name": "updateAgreement",
      "outputs": [],
      "stateMutability": "nonpayable",
      "type": "function"
    },
    {
      "inputs": [
        {
          "internalType": "address",
          "name": "_user",
          "type": "address"
        }
      ],
      "name": "getUserEscrows",
      "outputs": [
        {
          "internalType": "uint256[]",
          "name": "",
          "type": "uint256[]"
        }
      ],
      "stateMutability": "view",
      "type": "function",
      "constant": true
    },
    {
      "inputs": [
        {
          "internalType": "uint256",
          "name": "_escrowId",
          "type": "uint256"
        }
      ],
      "name": "getEscrowDetails",
      "outputs": [
        {
          "internalType": "uint256",
          "name": "landId",
          "type": "uint256"
        },
        {
          "internalType": "address",
          "name": "buyer",
          "type": "address"
        },
        {
          "internalType": "address",
          "name": "seller",
          "type": "address"
        },
        {
          "internalType": "uint256",
          "name": "amount",
          "type": "uint256"
        },
        {
          "internalType": "uint256",
          "name": "createdAt",
          "type": "uint256"
        },
        {
          "internalType": "uint256",
          "name": "completedAt",
          "type": "uint256"
        },
        {
          "internalType": "uint256",
          "name": "deadline",
          "type": "uint256"
        },
        {
          "internalType": "string",
          "name": "agreementHash",
          "type": "string"
        },
        {
          "internalType": "string",
          "name": "contactInfo",
          "type": "string"
        },
        {
          "internalType": "enum EscrowContract.EscrowState",
          "name": "state",
          "type": "uint8"
        },
        {
          "internalType": "string",
          "name": "cancelReason",
          "type": "string"
        }
      ],
      "stateMutability": "view",
      "type": "function",
      "constant": true
    },
    {
      "inputs": [
        {
          "internalType": "uint256",
          "name": "_escrowId",
          "type": "uint256"
        }
      ],
      "name": "isEscrowExpired",
      "outputs": [
        {
          "internalType": "bool",
          "name": "",
          "type": "bool"
        }
      ],
      "stateMutability": "view",
      "type": "function",
      "constant": true
    },
    {
      "inputs": [
        {
          "internalType": "uint256",
          "name": "_escrowId",
          "type": "uint256"
        },
        {
          "internalType": "string",
          "name": "_reason",
          "type": "string"
        }
      ],
      "name": "raiseDispute",
      "outputs": [],
      "stateMutability": "nonpayable",
      "type": "function"
    },
    {
      "inputs": [
        {
          "internalType": "uint256",
          "name": "_escrowId",
          "type": "uint256"
        },
        {
          "internalType": "bool",
          "name": "_refundToBuyer",
          "type": "bool"
        },
        {
          "internalType": "string",
          "name": "_resolution",
          "type": "string"
        }
      ],
      "name": "resolveDispute",
      "outputs": [],
      "stateMutability": "nonpayable",
      "type": "function"
    },
    {
      "inputs": [
        {
          "internalType": "uint256",
          "name": "_escrowId",
          "type": "uint256"
        },
        {
          "internalType": "uint256",
          "name": "_amount",
          "type": "uint256"
        },
        {
          "internalType": "string",
          "name": "_reason",
          "type": "string"
        }
      ],
      "name": "issuePartialRefund",
      "outputs": [],
      "stateMutability": "nonpayable",
      "type": "function"
    },
    {
      "inputs": [
        {
          "internalType": "uint256",
          "name": "_escrowId",
          "type": "uint256"
        }
      ],
      "name": "getEscrowStateHistory",
      "outputs": [
        {
          "internalType": "enum EscrowContract.EscrowState[]",
          "name": "states",
          "type": "uint8[]"
        },
        {
          "internalType": "uint256[]",
          "name": "timestamps",
          "type": "uint256[]"
        }
      ],
      "stateMutability": "view",
      "type": "function",
      "constant": true
    }
  ],
  "bytecode": "0x608034620000da576200368980380390601f19601f83011683019183831067ffffffffffffffff841117620000df578084926040948552833981010312620000da576200005a602062000052836200010e565b92016200010e565b6000805433600160a060020a031980831682178455604051959094600160a060020a03949093859391908416907f8be0079c531659141344cd1fd0a4f28419497f9722a3daafe3b4186f6b6457e09080a3600180556000600455606460055516836002541617600255169060065416176006556135659081620001248239f35b600080fd5b7f4e487b7100000000000000000000000000000000000000000000000000000000600052604160045260246000fd5b5190600160a060020a0382168203620000da5756fe60a0604052600436101561001257600080fd5b7c01000000000000000000000000000000000000000000000000000000008060003504908163012f52ee14612e9d5781630b12c37f14612d305781632840662d14612b7e578163356f9dfd14612a3657816341b0eaed14611e88575080635aef573c14611b815780635ccea85e14611b3357806367513bb51461192a578063715018a6146118c457806374043bf514610ed05780637f944dd014610e885780638c639a8514610e6a5780638da5cb5b14610e43578063967cd0a214610e005780639bb4ea1a14610dcf578063aa0b598814610d5e578063b6ceae9d14610b1b578063b996ec2a14610936578063bd4dc0241461090f578063c415b95c146108e8578063d2af2bcb14610484578063d2c35ce814610444578063df3e0a1d1461027e578063ee636c611461022e5763f2fde38b1461014e57600080fd5b3461022957602036600319011261022957610167613274565b61016f6132f1565b600160a060020a038091169081156101bc5760005482600160a060020a0319821617600055167f8be0079c531659141344cd1fd0a4f28419497f9722a3daafe3b4186f6b6457e0600080a3005b608460405160e560020a62461bcd02815260206004820152602660248201527f4f776e61626c653a206e6577206f776e657220697320746865207a65726f206160448201527f64647265737300000000000000000000000000000000000000000000000000006064820152fd5b600080fd5b346102295761023c366132bb565b90600052600860205260406000209081548110156102295761027c60ff6102676008936020956132d1565b9190546040519485930260020a90041661319d565bf35b346102295760203660031901126102295760043561029a6133cd565b8060005260036020526040600020906009820160ff815416600781101561042b576001036103e457600160a060020a0380600185015416331480156103d5575b6102e390613425565b6003840154906005548083029083820414831517156103bc57612710900491828103908082116103bc57600080809381938660028c01541690888491146103b3575bf11561039e578115908115610378575b835460ff191660021784554260058701556040518581527f9285bd636dda01bef18996aa38303bb742f6c67a6941646dddb17630cb492c2e90602090a160018055005b6000809381938293600698979854169083906103aa575bf11561039e5790838080610335565b6040513d6000823e3d90fd5b506108fc61038f565b506108fc610325565b60e060020a634e487b7102600052601160045260246000fd5b506002840154811633146102da565b606460405160e560020a62461bcd02815260206004820152601460248201527f457363726f77206e6f7420636f6e6669726d65640000000000000000000000006044820152fd5b60e060020a634e487b7102600052602160045260246000fd5b3461022957602036600319011261022957600160a060020a03610465613274565b61046d6132f1565b16600160a060020a03196006541617600655600080f35b346102295761049236613241565b908060005260209060038252604060002092600984019384549460ff8616600781101561042b57806108075750600160a060020a03600183015416330361079a5790600a915b600360ff1980981617905501815167ffffffffffffffff8111610781576104ff8254613019565b601f811161073d575b5084601f82116001146106b05791817fdf5af23a8bfbd700e381c19607d03504d7a5ba1876c669cccd37feace1f5adaa9492610575946000916106a5575b50816002029160080260020a6000190419161790555b6040519182918583526040878401526040830190613178565b0390a16105806133cd565b80600052600382526040600020600981019060ff825416600781101561042b576003810361065e576004146106175760008080836003600160a060020a03600184970154169101549082821561060e575bf11561039e5760047f2babb5cd458b6d41108d6d793a75e29ca524e7caa20e2da6c994462010920a7294825416179055604051908152a160018055005b506108fc6105d1565b6064846040519060e560020a62461bcd0282526004820152601060248201527f416c726561647920726566756e646564000000000000000000000000000000006044820152fd5b6064856040519060e560020a62461bcd0282526004820152601460248201527f457363726f77206e6f742063616e63656c6c65640000000000000000000000006044820152fd5b905083015189610546565b601f1982169083600052866000209160005b888282106107275750508361057595936001937fdf5af23a8bfbd700e381c19607d03504d7a5ba1876c669cccd37feace1f5adaa98966002941061070c575b50500201905561055c565b8601516008601f841602840a60001904191690558a80610701565b600184958293958a0151815501940192016106c2565b82600052856000208680601f850104820192818510610777575b601f010401905b81811061076b5750610508565b6000815560010161075e565b9192508291610757565b60e060020a634e487b7102600052604160045260246000fd5b6084856040519060e560020a62461bcd0282526004820152602360248201527f4f6e6c792062757965722063616e2063616e63656c206174207468697320737460448201527f61676500000000000000000000000000000000000000000000000000000000006064820152fd5b6001036108a157600160a060020a03806001840154163314908115610891575b508015610884575b1561083d5790600a916104d8565b6064856040519060e560020a62461bcd0282526004820152601d60248201527f4e6f7420617574686f72697a6564206f72206e6f7420657870697265640000006044820152fd5b506006820154421161082f565b9050600283015416331487610827565b6064856040519060e560020a62461bcd0282526004820152601e60248201527f43616e6e6f742063616e63656c2061742063757272656e7420737461746500006044820152fd5b34610229576000366003190112610229576020600160a060020a0360065416604051908152f35b34610229576000366003190112610229576020600160a060020a0360025416604051908152f35b3461022957602036600319011261022957600435600052600360205260406000206040519061096482613057565b80548252600160a060020a036001820154166020830152600160a060020a0360028201541660408301526003810154606083015260048101546080830152600581015460a0830152600681015460c08301526109c2600782016130b2565b60e08301526109d3600882016130b2565b61010083015260ff60098201541690600782101561042b57600f91610120840152610a00600a82016130b2565b610140840152610a12600b82016130b2565b610160840152600160a060020a03600c82015416610180840152600d8101546101a084015260ff600e8201541615156101c084015201546101e08201528051600160a060020a0360208301511691600160a060020a03604082015116906060810151608082015160a083015160c08401519060e0850151926101008601519461012087015196600788101561042b576101400151976040519a8b9a8b5260208b015260408a01526060890152608088015260a087015260c086015260e0850161016090526101608501610ae491613178565b848103610100860152610af691613178565b906101208401610b059161319d565b828103610140840152610b1791613178565b0390f35b3461022957610b2936613241565b9080600052602091600383526040600020600160a060020a0390610b5f6001928084840154163314908115610d4e575b50613425565b60ff600982015416600781101561042b57828115918215610d44575b505015610cfd576007019082519067ffffffffffffffff821161078157610ba28354613019565b601f8111610cb6575b508590601f8311600114610c29575091817fa6a10a1792f21b9e55d5fa9e7da6e59ecd675e7e7a2e26e9188eb6b0abd0eac196959492610c1994600091610c1e575b50816002029160080260020a6000190419161790555b6040805194859485528401526040830190613178565b0390a1005b905083015188610bed565b9190601f1982169084600052876000209160005b818110610ca15750927fa6a10a1792f21b9e55d5fa9e7da6e59ecd675e7e7a2e26e9188eb6b0abd0eac1989796949260029282610c19989610610c86575b505002019055610c03565b8601516008601f841602840a60001904191690558980610c7b565b87830151845592850192918901918901610c3d565b83600052866000208780601f860104820192818610610cf3575b601f0104019082905b828110610ce7575050610bab565b60008155018290610cd9565b9192508291610cd0565b6064856040519060e560020a62461bcd0282526004820152601e60248201527f43616e6e6f74207570646174652061742063757272656e7420737461746500006044820152fd5b1490508287610b7b565b9050600283015416331487610b59565b3461022957602036600319011261022957600435610d7a6132f1565b6101f48111610d8857600555005b606460405160e560020a62461bcd02815260206004820152600c60248201527f46656520746f6f206869676800000000000000000000000000000000000000006044820152fd5b3461022957602036600319011261022957600435600052600360205260206006604060002001544211604051908152f35b3461022957610e0e366132bb565b9060005260096020526040600020805482101561022957602091610e319161328a565b90546008604051920260020a90048152f35b34610229576000366003190112610229576020600160a060020a0360005416604051908152f35b34610229576000366003190112610229576020600554604051908152f35b3461022957604036600319011261022957610ea1613274565b600160a060020a03602435911660005260076020526040600020805482101561022957602091610e319161328a565b60803660031901126102295760243560443567ffffffffffffffff811161022957610eff9036906004016131c6565b60643567ffffffffffffffff811161022957610f1f9036906004016131c6565b90610f286133cd565b6004351561187d5760246000600160a060020a0360025416604051928380927ffe0cb7dc00000000000000000000000000000000000000000000000000000000825260043560048301525afa90811561039e57600091611783575b5060600151600160a060020a0316903382146117165734156116cf576004549260001984146103bc576001840160045562015180948581029581870414901517156103bc5784420142116103bc5760405194610fde86613057565b6004358652336020870152836040870152346060870152426080870152600060a0870152420160c086015260e0850152610100840152600061012084015260405161102881613074565b6000815261014084015260405161103e81613074565b60008152610160840152600061018084015260006101a084015260006101c084015260006101e0840152600182016000526003602052604060002083518155600160a060020a03602085015116600160a060020a031960018301541617600182015560028101600160a060020a03604086015116600160a060020a0319825416179055606084015160038201556080840151600482015560a0840151600582015560c0840151600682015560e084015180519067ffffffffffffffff821161078157819061110f6007850154613019565b601f811161167c575b50602090601f8311600114611608576000926115fd575b5050816002029160080260020a6000190419161760078201555b61010084015180519067ffffffffffffffff82116107815781906111706008850154613019565b601f81116115aa575b50602090601f83116001146115365760009261152b575b5050816002029160080260020a6000190419161760088201555b610120840151600781101561042b5760ff8019600984015416911617600982015561014084015180519067ffffffffffffffff82116107815781906111f2600a850154613019565b601f81116114d8575b50602090601f831160011461146457600092611459575b5050816002029160080260020a60001904191617600a8201555b61016084015193845167ffffffffffffffff811161078157611251600b840154613019565b95601f8711611412575b602096508690601f8311600114611376577fa96863da5e2cb895c2d739ef4b0a2bf93464d7bb3a3bf098c0af12c1b404c43a95938360a09694600f946101e09460009261136b575b5050816002029160080260020a60001904191617600b8501555b600c8401600160a060020a0361018083015116600160a060020a03198254161790556101a0810151600d850155600e84016101c0820151151560ff801983541691161790550151910155336000526007855261132060018501604060002061338e565b806000526007855261133960018501604060002061338e565b60405190600185018252600435868301523360408301526060820152346080820152a160018055600160405191018152f35b015190508b806112a3565b90600b8501600052876000209160005b601f19851681106113fb5750936001600285600f956101e0957fa96863da5e2cb895c2d739ef4b0a2bf93464d7bb3a3bf098c0af12c1b404c43a9b9960a09b99601f198116106113e0575b5050500201600b8501556112bd565b01516008601f841602840a60001904191690558c80806113d1565b919289600181928685015181550194019201611386565b600b840160005260206000206020601f840104810160208410611452575b6020601f8a01048201811061144657505061125b565b60008155600101611430565b5080611430565b015190508680611212565b9150600a840160005260206000209160005b601f19851681106114c05750918391600293600195601f198116106114a5575b5050500201600a82015561122c565b01516008601f841602840a6000190419169055878080611496565b91926020600181928685015181550194019201611476565b909150600a840160005260206000206020601f850104810160208510611524575b90849392915b6020601f840104820181106115155750506111fb565b600081558594506001016114ff565b50806114f9565b015190508680611190565b91506008840160005260206000209160005b601f19851681106115925750918391600293600195601f19811610611577575b505050020160088201556111aa565b01516008601f841602840a6000190419169055878080611568565b91926020600181928685015181550194019201611548565b9091506008840160005260206000206020601f8501048101602085106115f6575b90849392915b6020601f840104820181106115e7575050611179565b600081558594506001016115d1565b50806115cb565b01519050868061112f565b91506007840160005260206000209160005b601f19851681106116645750918391600293600195601f19811610611649575b50505002016007820155611149565b01516008601f841602840a600019041916905587808061163a565b9192602060018192868501518155019401920161161a565b9091506007840160005260206000206020601f8501048101602085106116c8575b90849392915b6020601f840104820181106116b9575050611118565b600081558594506001016116a3565b508061169d565b606460405160e560020a62461bcd02815260206004820152601a60248201527f4d7573742073656e6420657468657220666f7220657363726f770000000000006044820152fd5b608460405160e560020a62461bcd02815260206004820152602660248201527f43616e6e6f742063726561746520657363726f7720666f7220796f7572206f7760448201527f6e206c616e6400000000000000000000000000000000000000000000000000006064820152fd5b90503d806000833e6117958183613090565b8101906020818303126102295780519067ffffffffffffffff8211610229570160e0818303126102295760405160e0810181811067ffffffffffffffff8211176107815760405281518152602082015167ffffffffffffffff8111610229578361180091840161334c565b6020820152604082015160408201526060820151600160a060020a03811681036102295760608201526080820151608082015260a082015180151581036102295760a082015260c08201519167ffffffffffffffff831161022957600160a060020a0393606093611871920161334c565b60c08201529150610f83565b606460405160e560020a62461bcd02815260206004820152600f60248201527f496e76616c6964206c616e6420494400000000000000000000000000000000006044820152fd5b34610229576000366003190112610229576118dd6132f1565b6000805473ffffffffffffffffffffffffffffffffffffffff1981168255600160a060020a03167f8be0079c531659141344cd1fd0a4f28419497f9722a3daafe3b4186f6b6457e08280a3005b346102295760603660031901126102295760243560043560443567ffffffffffffffff8111610229576119619036906004016131c6565b908060005260209160038352604060002090600160a060020a038060018401541690813314908115611b23575b5015611ab65760038301548611611a495760008080888194600e8801600160ff1982541617905581600f890155828215611a40575bf11561039e577fd823bf1499e15ee75b24d6943bbf584fde4e53a0f1d22db24e9e8627e53ebd5d94611a0d610c1993856000526008875260ff6009604060002092015416906134c2565b8360005260098552611a246040600020429061338e565b6040519485948552840152606060408401526060830190613178565b506108fc6119c3565b6084856040519060e560020a62461bcd0282526004820152602360248201527f526566756e6420616d6f756e74206578636565647320657363726f7720616d6f60448201527f756e7400000000000000000000000000000000000000000000000000000000006064820152fd5b6084856040519060e560020a62461bcd0282526004820152602d60248201527f4f6e6c79206275796572206f722073656c6c65722063616e206973737565207060448201527f61727469616c20726566756e64000000000000000000000000000000000000006064820152fd5b905060028401541633148761198e565b3461022957602036600319011261022957600160a060020a03611b54613274565b166000526007602052610b17611b6d6040600020613473565b60405191829160208352602083019061320d565b3461022957611b8f36613241565b8160005260209160038352604060002092600160a060020a03936001948086830154163314908115611e78575b5015611e0b5760098101805460ff8116600781101561042b578703611d9e5760ff191660051790558351600b82019067ffffffffffffffff811161078157611c048254613019565b601f8111611d57575b508084601f8211600114611cf057600091611ce5575b50816002029160080260020a6000190419161790555b600c810133600160a060020a0319825416179055600d429101558160005260088152604060002090815494680100000000000000008610156107815785600993611ca7927f1b84372106d77c6daea0dda35bbc0229d10a83f58ec899092884925193682341980181556132d1565b60088254910260020a908160ff028092600502169119161790558260005252611cd442604060002061338e565b610c1960405192839233908461350a565b905086015188611c23565b91508790601f1981169284600052866000209060005b88868210611d41575050826002949510611d26575b505002019055611c39565b8901516008601f841602840a60001904191690558980611d1b565b828c015184558c95909301929182019101611d06565b82600052846000208580601f850104820192818510611d94575b601f0104019088905b828110611d88575050611c0d565b60008155018890611d7a565b9192508291611d71565b6084846040519060e560020a62461bcd0282526004820152602960248201527f43616e206f6e6c79207261697365206469737075746520696e20436f6e66697260448201527f6d656420737461746500000000000000000000000000000000000000000000006064820152fd5b6084826040519060e560020a62461bcd0282526004820152602660248201527f4f6e6c79206275796572206f722073656c6c65722063616e207261697365206460448201527f69737075746500000000000000000000000000000000000000000000000000006064820152fd5b9050600282015416331486611bbc565b346102295760209081600319360112610229576004356000526008825260406000209160098152604060002060405192828485928288549283815201918298600052836000206000905b82601f8301106125f45791859391611ff796611ffc9998969454938383106125d8575b8383106125b8575b838310612597575b838310612575575b838310612552575b83831061252e575b838310612509575b8383106124e3575b8383106124bc575b838310612494575b83831061246b575b838310612441575b838310612416575b8383106123ea575b8383106123bd575b83831061238f575b838310612360575b838310612330575b8383106122ff575b8383106122cd575b83831061229a575b838310612266575b838310612231575b8383106121fb575b8383106121c4575b83831061218c575b838310612153575b838310612119575b8383106120fc575b508282106120c2575b828210612087575b501061204f575b5090500385613090565b613473565b90604051926040840190604085525180915260608401949060005b81811061203157858703848701528580610b17898861320d565b9091958380826120446001948b5161319d565b019701929101612017565b8160ff7f010000000000000000000000000000000000000000000000000000000000000061207e93041661319d565b01859089611fed565b846120b96001939660ff7e0100000000000000000000000000000000000000000000000000000000000088041661319d565b01930184611fe6565b846120f36001939660ff7d01000000000000000000000000000000000000000000000000000000000088041661319d565b01930184611fde565b9461210f8160ff6001959888041661319d565b019301848d611fd5565b9194818161214a60019360ff7b010000000000000000000000000000000000000000000000000000008a041661319d565b01950191611fcd565b9194818161218360019360ff7a0100000000000000000000000000000000000000000000000000008a041661319d565b01950191611fc5565b919481816121bb60019360ff7901000000000000000000000000000000000000000000000000008a041661319d565b01950191611fbd565b919481816121f260019360ff78010000000000000000000000000000000000000000000000008a041661319d565b01950191611fb5565b9194818161222860019360ff770100000000000000000000000000000000000000000000008a041661319d565b01950191611fad565b9194818161225d60019360ff7601000000000000000000000000000000000000000000008a041661319d565b01950191611fa5565b9194818161229160019360ff75010000000000000000000000000000000000000000008a041661319d565b01950191611f9d565b919481816122c460019360ff740100000000000000000000000000000000000000008a041661319d565b01950191611f95565b919481816122f660019360ff7301000000000000000000000000000000000000008a041661319d565b01950191611f8d565b9194818161232760019360ff72010000000000000000000000000000000000008a041661319d565b01950191611f85565b9194818161235760019360ff710100000000000000000000000000000000008a041661319d565b01950191611f7d565b9194818161238660019360ff7001000000000000000000000000000000008a041661319d565b01950191611f75565b919481816123b460019360ff6f010000000000000000000000000000008a041661319d565b01950191611f6d565b919481816123e160019360ff6e0100000000000000000000000000008a041661319d565b01950191611f65565b9194818161240d60019360ff6d01000000000000000000000000008a041661319d565b01950191611f5d565b9194818161243860019360ff6c010000000000000000000000008a041661319d565b01950191611f55565b9194818161246260019360ff6b0100000000000000000000008a041661319d565b01950191611f4d565b9194818161248b60019360ff6a01000000000000000000008a041661319d565b01950191611f45565b919481816124b360019360ff69010000000000000000008a041661319d565b01950191611f3d565b919481816124da60019360ff680100000000000000008a041661319d565b01950191611f35565b9194818161250060019360ff6701000000000000008a041661319d565b01950191611f2d565b9194818161252560019360ff66010000000000008a041661319d565b01950191611f25565b9194818161254960019360ff650100000000008a041661319d565b01950191611f1d565b9194818161256c60019360ff6401000000008a041661319d565b01950191611f15565b9194818161258e60019360ff63010000008a041661319d565b01950191611f0d565b919481816125af60019360ff620100008a041661319d565b01950191611f05565b919481816125cf60019360ff6101008a041661319d565b01950191611efd565b919481816125eb60019360ff891661319d565b01950191611ef5565b955091939092610400600191612a25885460ff6126138482841661319d565b6126c5610100612629898701848387041661319d565b61263d60408701846201000087041661319d565b6126526060870184630100000087041661319d565b612668608087018464010000000087041661319d565b61267f60a08701846501000000000087041661319d565b61269760c0870184660100000000000087041661319d565b6126b060e087018467010000000000000087041661319d565b8501826801000000000000000085041661319d565b6126e1610120850182690100000000000000000085041661319d565b6126fe6101408501826a010000000000000000000085041661319d565b61271c6101608501826b01000000000000000000000085041661319d565b61273b6101808501826c0100000000000000000000000085041661319d565b61275b6101a08501826d010000000000000000000000000085041661319d565b61277c6101c08501826e01000000000000000000000000000085041661319d565b61279e6101e08501826f0100000000000000000000000000000085041661319d565b6127c161020085018270010000000000000000000000000000000085041661319d565b6127e56102208501827101000000000000000000000000000000000085041661319d565b61280a610240850182720100000000000000000000000000000000000085041661319d565b61283061026085018273010000000000000000000000000000000000000085041661319d565b6128576102808501827401000000000000000000000000000000000000000085041661319d565b61287f6102a0850182750100000000000000000000000000000000000000000085041661319d565b6128a86102c085018276010000000000000000000000000000000000000000000085041661319d565b6128d26102e08501827701000000000000000000000000000000000000000000000085041661319d565b6128fd610300850182780100000000000000000000000000000000000000000000000085041661319d565b61292961032085018279010000000000000000000000000000000000000000000000000085041661319d565b6129566103408501827a01000000000000000000000000000000000000000000000000000085041661319d565b6129846103608501827b0100000000000000000000000000000000000000000000000000000085041661319d565b6129966103808501828c85041661319d565b6129c66103a08501827d01000000000000000000000000000000000000000000000000000000000085041661319d565b6129f76103c08501827e0100000000000000000000000000000000000000000000000000000000000085041661319d565b7f01000000000000000000000000000000000000000000000000000000000000006103e0850192041661319d565b019501910191879492879492611ed2565b3461022957602036600319011261022957600435612a526133cd565b8060005260036020526040600020600981019060ff825416600781101561042b5760038103612b3757600414612af05760008080836003600160a060020a036001849701541691015490828215612ae7575bf11561039e57805460ff191660041790556040519081527f2babb5cd458b6d41108d6d793a75e29ca524e7caa20e2da6c994462010920a7290602090a160018055005b506108fc612aa4565b606460405160e560020a62461bcd02815260206004820152601060248201527f416c726561647920726566756e646564000000000000000000000000000000006044820152fd5b606460405160e560020a62461bcd02815260206004820152601460248201527f457363726f77206e6f742063616e63656c6c65640000000000000000000000006044820152fd5b346102295760603660031901126102295760243560043581151582036102295760443567ffffffffffffffff811161022957612bbe9036906004016131c6565b90612bc76132f1565b8060005260036020526040600020600981019360ff855416600781101561042b57600503612ce957600080809381938214612c89576003600160a060020a0360018301541691015490828215612c80575bf11561039e57612c687f7b71d2e00379bd165b2750d54298da2414376699827edca2bce2a096c491d2e993600460ff198254161781555b82600052600860205260ff6040600020915416906134c2565b806000526009602052611cd46040600020429061338e565b506108fc612c18565b6003600160a060020a0360028301541691015490828215612ce0575bf11561039e57612c687f7b71d2e00379bd165b2750d54298da2414376699827edca2bce2a096c491d2e993600260ff19825416178155612c4f565b506108fc612ca5565b606460405160e560020a62461bcd02815260206004820152601c60248201527f457363726f77206e6f7420696e206469737075746564207374617465000000006044820152fd5b3461022957602080600319360112610229576004359081600052600381526040600020600160a060020a036002820154163303612e5657600981019081549060ff8216600781101561042b57612e0f5760060154421015612dc85760ff191660011790556040805192835233918301919091527f38880d6051ef87694725e7a2c78b22f85c1be92c2129518d916aa0b500c2528591a1005b6064836040519060e560020a62461bcd0282526004820152601260248201527f457363726f7720686173206578706972656400000000000000000000000000006044820152fd5b6064846040519060e560020a62461bcd0282526004820152601b60248201527f457363726f77206e6f7420696e204372656174656420737461746500000000006044820152fd5b6064826040519060e560020a62461bcd0282526004820152601760248201527f4f6e6c792073656c6c65722063616e20636f6e6669726d0000000000000000006044820152fd5b346102295760203660031901126102295760043560005260036020526040600020805490600160a060020a03908160018201541691806002830154169060038301549460048401549060058501549060068601549060078701612eff906130b2565b90612f0c600889016130b2565b92600989015460ff1694600a8a01612f23906130b2565b96612f30600b8c016130b2565b98600c8c0154169c600d8c01549a600e8d015460ff169c600f01549d60405160805261020096608051526080516020015260805160400152608051606001526080516080015260805160a0015260805160c001528060805160e0015260805101612f9991613178565b60805181036080516101000152612faf91613178565b9060805161012001612fc09161319d565b60805181036080516101400152612fd691613178565b60805181036080516101600152612fec91613178565b9360805161018001526080516101a0015215156080516101c001526080516101e001526080519003608051f35b906001600283049216801561304d575b602083101461303457565b60e060020a634e487b7102600052602260045260246000fd5b91607f1691613029565b610200810190811067ffffffffffffffff82111761078157604052565b6020810190811067ffffffffffffffff82111761078157604052565b90601f8019910116810190811067ffffffffffffffff82111761078157604052565b906040519182600082546130c581613019565b90818452602094600191828116908160001461313457506001146130f5575b5050506130f392500383613090565b565b600090815285812095935091905b81831061311c5750506130f393508201013880806130e4565b85548884018501529485019487945091830191613103565b925050506130f394925060ff191682840152151581028201013880806130e4565b60005b8381106131685750506000910152565b8181015183820152602001613158565b9060209161319181518092818552858086019101613155565b601f01601f1916010190565b90600782101561042b5752565b67ffffffffffffffff811161078157601f01601f191660200190565b81601f82011215610229578035906131dd826131aa565b926131eb6040519485613090565b8284526020838301011161022957816000926020809301838601378301015290565b90815180825260208080930193019160005b82811061322d575050505090565b83518552938101939281019260010161321f565b90604060031983011261022957600435916024359067ffffffffffffffff821161022957613271916004016131c6565b90565b60043590600160a060020a038216820361022957565b80548210156132a25760005260206000200190600090565b60e060020a634e487b7102600052603260045260246000fd5b6040906003190112610229576004359060243590565b91909180548310156132a257600052601f60206000206020840401921690565b600160a060020a0360005416330361330557565b606460405160e560020a62461bcd02815260206004820152602060248201527f4f776e61626c653a2063616c6c6572206973206e6f7420746865206f776e65726044820152fd5b81601f82011215610229578051613362816131aa565b926133706040519485613090565b81845260208284010111610229576132719160208085019101613155565b805468010000000000000000811015610781576133b09160018201815561328a565b600882939254910260020a91826000039283910216911916179055565b6002600154146133de576002600155565b606460405160e560020a62461bcd02815260206004820152601f60248201527f5265656e7472616e637947756172643a207265656e7472616e742063616c6c006044820152fd5b1561342c57565b606460405160e560020a62461bcd02815260206004820152600e60248201527f4e6f7420617574686f72697a65640000000000000000000000000000000000006044820152fd5b9060405191828154918282526020928383019160005283600020936000905b8282106134a8575050506130f392500383613090565b855484526001958601958895509381019390910190613492565b805468010000000000000000811015610781576134e4916001820181556132d1565b6007839293101561042b5760088354910260020a918260ff029283910216911916179055565b600160a060020a0361327194936060938352166020820152816040820152019061317856fea26469706673582212209599ea84b043f88bfb1be6ad2998830dd58fb6310a7ad1c71681a7b8aa2c0fa464736f6c63430008150033",
  "immutableReferences": {},
  "source": "// SPDX-License-Identifier: MIT\r\npragma solidity ^0.8.0;\r\n\r\nimport \"@openzeppelin/contracts/access/Ownable.sol\";\r\nimport \"@openzeppelin/contracts/security/ReentrancyGuard.sol\";\r\nimport \"./LandRegistry.sol\";\r\n\r\ncontract EscrowContract is Ownable, ReentrancyGuard {\r\n    // Tham chiu n hp ng LandRegistry\r\n    LandRegistry public landRegistry;\r\n\r\n    enum EscrowState {\r\n        Created, //  to t cc\r\n        Confirmed, // Ch t  xc nhn\r\n        Completed, //  hon thnh\r\n        Cancelled, //  hy\r\n        Refunded, //  hon tin\r\n        Disputed, // ang tranh chp\r\n        Resolved //  gii quyt tranh chp\r\n    }\r\n\r\n    struct Escrow {\r\n        uint256 landId;\r\n        address buyer;\r\n        address seller;\r\n        uint256 amount;\r\n        uint256 createdAt;\r\n        uint256 completedAt;\r\n        uint256 deadline; // Hn cht ca t cc (tnh bng timestamp)\r\n        string agreementHash; // IPFS hash ca hp ng t cc\r\n        string contactInfo; // Thng tin lin h  c m ha\r\n        EscrowState state;\r\n        string cancelReason; // L do hy t cc\r\n        string disputeReason; // L do tranh chp\r\n        address disputeRaisedBy; // Ngi to tranh chp\r\n        uint256 disputeRaisedAt; // Thi im to tranh chp\r\n        bool isPartialRefund; // C phi hon tin mt phn khng\r\n        uint256 refundAmount; // S tin hon tr\r\n    }\r\n\r\n    mapping(uint256 => Escrow) public escrows;\r\n    uint256 private escrowCount = 0;\r\n\r\n    // Bin lu tr phn trm ph ca nn tng (1% = 100)\r\n    uint256 public platformFeePercent = 100; // Mc nh 1%\r\n    address public feeCollector;\r\n\r\n    // Mapping  lu tr cc escrow ca mt ngi dng\r\n    mapping(address => uint256[]) public userEscrows;\r\n\r\n    // Thm mapping  lu tr lch s trng thi\r\n    mapping(uint256 => EscrowState[]) public escrowStateHistory;\r\n    mapping(uint256 => uint256[]) public escrowStateTimestamps;\r\n\r\n    // Events\r\n    event EscrowCreated(\r\n        uint256 escrowId,\r\n        uint256 landId,\r\n        address buyer,\r\n        address seller,\r\n        uint256 amount\r\n    );\r\n    event EscrowConfirmed(uint256 escrowId, address seller);\r\n    event EscrowCompleted(uint256 escrowId);\r\n    event EscrowCancelled(uint256 escrowId, string reason);\r\n    event EscrowRefunded(uint256 escrowId);\r\n    event AgreementUpdated(uint256 escrowId, string agreementHash);\r\n    event EscrowStateChanged(uint256 escrowId, EscrowState oldState, EscrowState newState);\r\n    event DisputeRaised(uint256 escrowId, address raisedBy, string reason);\r\n    event DisputeResolved(uint256 escrowId, address resolver, string resolution);\r\n    event PartialRefundIssued(uint256 escrowId, uint256 amount, string reason);\r\n\r\n    constructor(address _landRegistryAddress, address _feeCollector) {\r\n        landRegistry = LandRegistry(_landRegistryAddress);\r\n        feeCollector = _feeCollector;\r\n    }\r\n\r\n    // Cp nht ph nn tng - ch ch s hu hp ng\r\n    function updatePlatformFee(uint256 _feePercent) external onlyOwner {\r\n        require(_feePercent <= 500, \"Fee too high\"); // Ti a 5%\r\n        platformFeePercent = _feePercent;\r\n    }\r\n\r\n    // Cp nht a ch nhn ph\r\n    function updateFeeCollector(address _feeCollector) external onlyOwner {\r\n        feeCollector = _feeCollector;\r\n    }\r\n\r\n    // To t cc mi\r\n    function createEscrow(\r\n        uint256 _landId,\r\n        uint256 _durationDays,\r\n        string memory _contactInfo,\r\n        string memory _agreementHash\r\n    ) external payable nonReentrant returns (uint256) {\r\n        // Kim tra bt ng sn\r\n        require(_landId > 0, \"Invalid land ID\");\r\n\r\n        // Ly thng tin v bt ng sn\r\n        LandRegistry.Land memory land = landRegistry.getLandDetails(_landId);\r\n        address seller = land.owner;\r\n\r\n        // Kim tra ngi mua khng phi l ch t\r\n        require(msg.sender != seller, \"Cannot create escrow for your own land\");\r\n\r\n        // Kim tra s tin t cc\r\n        require(msg.value > 0, \"Must send ether for escrow\");\r\n\r\n        // To escrow mi\r\n        escrowCount++;\r\n        uint256 newEscrowId = escrowCount;\r\n        uint256 deadline = block.timestamp + (_durationDays * 1 days);\r\n\r\n        escrows[newEscrowId] = Escrow({\r\n            landId: _landId,\r\n            buyer: msg.sender,\r\n            seller: seller,\r\n            amount: msg.value,\r\n            createdAt: block.timestamp,\r\n            completedAt: 0,\r\n            deadline: deadline,\r\n            agreementHash: _agreementHash,\r\n            contactInfo: _contactInfo,\r\n            state: EscrowState.Created,\r\n            cancelReason: \"\",\r\n            disputeReason: \"\",\r\n            disputeRaisedBy: address(0),\r\n            disputeRaisedAt: 0,\r\n            isPartialRefund: false,\r\n            refundAmount: 0\r\n        });\r\n\r\n        // Lu escrow vo danh sch ca ngi dng\r\n        userEscrows[msg.sender].push(newEscrowId);\r\n        userEscrows[seller].push(newEscrowId);\r\n\r\n        emit EscrowCreated(newEscrowId, _landId, msg.sender, seller, msg.value);\r\n\r\n        return newEscrowId;\r\n    }\r\n\r\n    // Ch t xc nhn t cc\r\n    function confirmEscrow(uint256 _escrowId) external {\r\n        Escrow storage escrow = escrows[_escrowId];\r\n\r\n        require(escrow.seller == msg.sender, \"Only seller can confirm\");\r\n        require(\r\n            escrow.state == EscrowState.Created,\r\n            \"Escrow not in Created state\"\r\n        );\r\n        require(block.timestamp < escrow.deadline, \"Escrow has expired\");\r\n\r\n        escrow.state = EscrowState.Confirmed;\r\n\r\n        emit EscrowConfirmed(_escrowId, msg.sender);\r\n    }\r\n\r\n    // Hon thnh t cc - ch c th gi khi  xc nhn\r\n    function completeEscrow(uint256 _escrowId) external nonReentrant {\r\n        Escrow storage escrow = escrows[_escrowId];\r\n\r\n        require(escrow.state == EscrowState.Confirmed, \"Escrow not confirmed\");\r\n        require(\r\n            msg.sender == escrow.buyer || msg.sender == escrow.seller,\r\n            \"Not authorized\"\r\n        );\r\n\r\n        // Tnh ph nn tng\r\n        uint256 fee = (escrow.amount * platformFeePercent) / 10000;\r\n        uint256 sellerAmount = escrow.amount - fee;\r\n\r\n        // Chuyn tin cho ngi bn\r\n        payable(escrow.seller).transfer(sellerAmount);\r\n\r\n        // Chuyn ph cho nn tng\r\n        if (fee > 0) {\r\n            payable(feeCollector).transfer(fee);\r\n        }\r\n\r\n        // Cp nht trng thi\r\n        escrow.state = EscrowState.Completed;\r\n        escrow.completedAt = block.timestamp;\r\n\r\n        emit EscrowCompleted(_escrowId);\r\n    }\r\n\r\n    // Hy t cc - c th gi bi ngi mua hoc ngi bn vi cc iu kin khc nhau\r\n    function cancelEscrow(uint256 _escrowId, string memory _reason) external {\r\n        Escrow storage escrow = escrows[_escrowId];\r\n\r\n        // Kim tra iu kin hy\r\n        if (escrow.state == EscrowState.Created) {\r\n            // Trc khi ch t xc nhn, ngi mua c th hy bt k lc no\r\n            require(\r\n                msg.sender == escrow.buyer,\r\n                \"Only buyer can cancel at this stage\"\r\n            );\r\n        } else if (escrow.state == EscrowState.Confirmed) {\r\n            // Sau khi xc nhn, cn s ng thun ca c hai bn hoc  qu hn\r\n            require(\r\n                msg.sender == escrow.buyer ||\r\n                    msg.sender == escrow.seller ||\r\n                    block.timestamp > escrow.deadline,\r\n                \"Not authorized or not expired\"\r\n            );\r\n        } else {\r\n            revert(\"Cannot cancel at current state\");\r\n        }\r\n\r\n        escrow.state = EscrowState.Cancelled;\r\n        escrow.cancelReason = _reason;\r\n\r\n        emit EscrowCancelled(_escrowId, _reason);\r\n\r\n        // T ng hon tin khi hy\r\n        refundEscrow(_escrowId);\r\n    }\r\n\r\n    // Hon tin t cc cho ngi mua\r\n    function refundEscrow(uint256 _escrowId) public nonReentrant {\r\n        Escrow storage escrow = escrows[_escrowId];\r\n\r\n        require(escrow.state == EscrowState.Cancelled, \"Escrow not cancelled\");\r\n        require(escrow.state != EscrowState.Refunded, \"Already refunded\");\r\n\r\n        // Hon tin cho ngi mua\r\n        payable(escrow.buyer).transfer(escrow.amount);\r\n        escrow.state = EscrowState.Refunded;\r\n\r\n        emit EscrowRefunded(_escrowId);\r\n    }\r\n\r\n    // Cp nht hp ng t cc\r\n    function updateAgreement(\r\n        uint256 _escrowId,\r\n        string memory _newAgreementHash\r\n    ) external {\r\n        Escrow storage escrow = escrows[_escrowId];\r\n\r\n        require(\r\n            msg.sender == escrow.buyer || msg.sender == escrow.seller,\r\n            \"Not authorized\"\r\n        );\r\n        require(\r\n            escrow.state == EscrowState.Created ||\r\n                escrow.state == EscrowState.Confirmed,\r\n            \"Cannot update at current state\"\r\n        );\r\n\r\n        escrow.agreementHash = _newAgreementHash;\r\n\r\n        emit AgreementUpdated(_escrowId, _newAgreementHash);\r\n    }\r\n\r\n    // Ly danh sch escrow ca mt ngi dng\r\n    function getUserEscrows(\r\n        address _user\r\n    ) external view returns (uint256[] memory) {\r\n        return userEscrows[_user];\r\n    }\r\n\r\n    // Ly thng tin chi tit ca mt escrow\r\n    function getEscrowDetails(\r\n        uint256 _escrowId\r\n    )\r\n        external\r\n        view\r\n        returns (\r\n            uint256 landId,\r\n            address buyer,\r\n            address seller,\r\n            uint256 amount,\r\n            uint256 createdAt,\r\n            uint256 completedAt,\r\n            uint256 deadline,\r\n            string memory agreementHash,\r\n            string memory contactInfo,\r\n            EscrowState state,\r\n            string memory cancelReason\r\n        )\r\n    {\r\n        Escrow memory escrow = escrows[_escrowId];\r\n        return (\r\n            escrow.landId,\r\n            escrow.buyer,\r\n            escrow.seller,\r\n            escrow.amount,\r\n            escrow.createdAt,\r\n            escrow.completedAt,\r\n            escrow.deadline,\r\n            escrow.agreementHash,\r\n            escrow.contactInfo,\r\n            escrow.state,\r\n            escrow.cancelReason\r\n        );\r\n    }\r\n\r\n    // Kim tra xem mt escrow c qu hn khng\r\n    function isEscrowExpired(uint256 _escrowId) external view returns (bool) {\r\n        return block.timestamp > escrows[_escrowId].deadline;\r\n    }\r\n\r\n    // Thm hm  to tranh chp\r\n    function raiseDispute(uint256 _escrowId, string memory _reason) external {\r\n        Escrow storage escrow = escrows[_escrowId];\r\n        require(\r\n            msg.sender == escrow.buyer || msg.sender == escrow.seller,\r\n            \"Only buyer or seller can raise dispute\"\r\n        );\r\n        require(\r\n            escrow.state == EscrowState.Confirmed,\r\n            \"Can only raise dispute in Confirmed state\"\r\n        );\r\n\r\n        escrow.state = EscrowState.Disputed;\r\n        escrow.disputeReason = _reason;\r\n        escrow.disputeRaisedBy = msg.sender;\r\n        escrow.disputeRaisedAt = block.timestamp;\r\n\r\n        // Cp nht lch s trng thi\r\n        escrowStateHistory[_escrowId].push(EscrowState.Disputed);\r\n        escrowStateTimestamps[_escrowId].push(block.timestamp);\r\n\r\n        emit DisputeRaised(_escrowId, msg.sender, _reason);\r\n    }\r\n\r\n    // Thm hm  gii quyt tranh chp\r\n    function resolveDispute(\r\n        uint256 _escrowId,\r\n        bool _refundToBuyer,\r\n        string memory _resolution\r\n    ) external onlyOwner {\r\n        Escrow storage escrow = escrows[_escrowId];\r\n        require(escrow.state == EscrowState.Disputed, \"Escrow not in disputed state\");\r\n\r\n        if (_refundToBuyer) {\r\n            // Hon tin cho ngi mua\r\n            payable(escrow.buyer).transfer(escrow.amount);\r\n            escrow.state = EscrowState.Refunded;\r\n        } else {\r\n            // Chuyn tin cho ngi bn\r\n            payable(escrow.seller).transfer(escrow.amount);\r\n            escrow.state = EscrowState.Completed;\r\n        }\r\n\r\n        // Cp nht lch s trng thi\r\n        escrowStateHistory[_escrowId].push(escrow.state);\r\n        escrowStateTimestamps[_escrowId].push(block.timestamp);\r\n\r\n        emit DisputeResolved(_escrowId, msg.sender, _resolution);\r\n    }\r\n\r\n    // Thm hm  hon tin mt phn\r\n    function issuePartialRefund(\r\n        uint256 _escrowId,\r\n        uint256 _amount,\r\n        string memory _reason\r\n    ) external {\r\n        Escrow storage escrow = escrows[_escrowId];\r\n        require(\r\n            msg.sender == escrow.buyer || msg.sender == escrow.seller,\r\n            \"Only buyer or seller can issue partial refund\"\r\n        );\r\n        require(_amount <= escrow.amount, \"Refund amount exceeds escrow amount\");\r\n\r\n        escrow.isPartialRefund = true;\r\n        escrow.refundAmount = _amount;\r\n        payable(escrow.buyer).transfer(_amount);\r\n\r\n        // Cp nht lch s trng thi\r\n        escrowStateHistory[_escrowId].push(escrow.state);\r\n        escrowStateTimestamps[_escrowId].push(block.timestamp);\r\n\r\n        emit PartialRefundIssued(_escrowId, _amount, _reason);\r\n    }\r\n\r\n    // Thm hm  ly lch s trng thi\r\n    function getEscrowStateHistory(uint256 _escrowId)\r\n        external\r\n        view\r\n        returns (EscrowState[] memory states, uint256[] memory timestamps)\r\n    {\r\n        return (escrowStateHistory[_escrowId], escrowStateTimestamps[_escrowId]);\r\n    }\r\n}\r\n",
  "sourcePath": "E:\\DApps\\Smartcontract_Blockchain\\contracts\\EscrowContract.sol",
  "compiler": {
    "name": "solc",
    "version": "0.8.21+commit.d9974bed.Emscripten.clang"
  },
  "schemaVersion": "3.4.16",
  "updatedAt": "2025-05-20T13:10:37.484Z",
  "networkType": "ethereum",
  "devdoc": {
    "kind": "dev",
    "methods": {
      "owner()": {
        "details": "Returns the address of the current owner."
      },
      "renounceOwnership()": {
        "details": "Leaves the contract without owner. It will not be possible to call `onlyOwner` functions. Can only be called by the current owner. NOTE: Renouncing ownership will leave the contract without an owner, thereby disabling any functionality that is only available to the owner."
      },
      "transferOwnership(address)": {
        "details": "Transfers ownership of the contract to a new account (`newOwner`). Can only be called by the current owner."
      }
    },
    "version": 1
  },
  "userdoc": {
    "kind": "user",
    "methods": {},
    "version": 1
  }
}