{
  "contractName": "LandRegistry",
  "abi": [
    {
      "inputs": [],
      "stateMutability": "nonpayable",
      "type": "constructor"
    },
    {
      "anonymous": false,
      "inputs": [
        {
          "indexed": true,
          "internalType": "address",
          "name": "owner",
          "type": "address"
        },
        {
          "indexed": true,
          "internalType": "address",
          "name": "approved",
          "type": "address"
        },
        {
          "indexed": true,
          "internalType": "uint256",
          "name": "tokenId",
          "type": "uint256"
        }
      ],
      "name": "Approval",
      "type": "event"
    },
    {
      "anonymous": false,
      "inputs": [
        {
          "indexed": true,
          "internalType": "address",
          "name": "owner",
          "type": "address"
        },
        {
          "indexed": true,
          "internalType": "address",
          "name": "operator",
          "type": "address"
        },
        {
          "indexed": false,
          "internalType": "bool",
          "name": "approved",
          "type": "bool"
        }
      ],
      "name": "ApprovalForAll",
      "type": "event"
    },
    {
      "anonymous": false,
      "inputs": [
        {
          "indexed": false,
          "internalType": "uint256",
          "name": "_fromTokenId",
          "type": "uint256"
        },
        {
          "indexed": false,
          "internalType": "uint256",
          "name": "_toTokenId",
          "type": "uint256"
        }
      ],
      "name": "BatchMetadataUpdate",
      "type": "event"
    },
    {
      "anonymous": false,
      "inputs": [
        {
          "indexed": true,
          "internalType": "uint256",
          "name": "tokenId",
          "type": "uint256"
        },
        {
          "indexed": false,
          "internalType": "bool",
          "name": "isForSale",
          "type": "bool"
        }
      ],
      "name": "LandForSale",
      "type": "event"
    },
    {
      "anonymous": false,
      "inputs": [
        {
          "indexed": true,
          "internalType": "uint256",
          "name": "tokenId",
          "type": "uint256"
        },
        {
          "indexed": false,
          "internalType": "uint256",
          "name": "newPrice",
          "type": "uint256"
        }
      ],
      "name": "LandPriceChanged",
      "type": "event"
    },
    {
      "anonymous": false,
      "inputs": [
        {
          "indexed": true,
          "internalType": "uint256",
          "name": "tokenId",
          "type": "uint256"
        },
        {
          "indexed": false,
          "internalType": "string",
          "name": "location",
          "type": "string"
        },
        {
          "indexed": false,
          "internalType": "address",
          "name": "owner",
          "type": "address"
        }
      ],
      "name": "LandRegistered",
      "type": "event"
    },
    {
      "anonymous": false,
      "inputs": [
        {
          "indexed": true,
          "internalType": "uint256",
          "name": "tokenId",
          "type": "uint256"
        },
        {
          "indexed": false,
          "internalType": "address",
          "name": "from",
          "type": "address"
        },
        {
          "indexed": false,
          "internalType": "address",
          "name": "to",
          "type": "address"
        },
        {
          "indexed": false,
          "internalType": "uint256",
          "name": "price",
          "type": "uint256"
        }
      ],
      "name": "LandTransferred",
      "type": "event"
    },
    {
      "anonymous": false,
      "inputs": [
        {
          "indexed": false,
          "internalType": "uint256",
          "name": "_tokenId",
          "type": "uint256"
        }
      ],
      "name": "MetadataUpdate",
      "type": "event"
    },
    {
      "anonymous": false,
      "inputs": [
        {
          "indexed": true,
          "internalType": "address",
          "name": "previousOwner",
          "type": "address"
        },
        {
          "indexed": true,
          "internalType": "address",
          "name": "newOwner",
          "type": "address"
        }
      ],
      "name": "OwnershipTransferred",
      "type": "event"
    },
    {
      "anonymous": false,
      "inputs": [
        {
          "indexed": true,
          "internalType": "address",
          "name": "from",
          "type": "address"
        },
        {
          "indexed": true,
          "internalType": "address",
          "name": "to",
          "type": "address"
        },
        {
          "indexed": true,
          "internalType": "uint256",
          "name": "tokenId",
          "type": "uint256"
        }
      ],
      "name": "Transfer",
      "type": "event"
    },
    {
      "inputs": [
        {
          "internalType": "address",
          "name": "to",
          "type": "address"
        },
        {
          "internalType": "uint256",
          "name": "tokenId",
          "type": "uint256"
        }
      ],
      "name": "approve",
      "outputs": [],
      "stateMutability": "nonpayable",
      "type": "function"
    },
    {
      "inputs": [
        {
          "internalType": "address",
          "name": "owner",
          "type": "address"
        }
      ],
      "name": "balanceOf",
      "outputs": [
        {
          "internalType": "uint256",
          "name": "",
          "type": "uint256"
        }
      ],
      "stateMutability": "view",
      "type": "function",
      "constant": true
    },
    {
      "inputs": [
        {
          "internalType": "uint256",
          "name": "tokenId",
          "type": "uint256"
        }
      ],
      "name": "getApproved",
      "outputs": [
        {
          "internalType": "address",
          "name": "",
          "type": "address"
        }
      ],
      "stateMutability": "view",
      "type": "function",
      "constant": true
    },
    {
      "inputs": [
        {
          "internalType": "address",
          "name": "owner",
          "type": "address"
        },
        {
          "internalType": "address",
          "name": "operator",
          "type": "address"
        }
      ],
      "name": "isApprovedForAll",
      "outputs": [
        {
          "internalType": "bool",
          "name": "",
          "type": "bool"
        }
      ],
      "stateMutability": "view",
      "type": "function",
      "constant": true
    },
    {
      "inputs": [
        {
          "internalType": "uint256",
          "name": "",
          "type": "uint256"
        }
      ],
      "name": "lands",
      "outputs": [
        {
          "internalType": "uint256",
          "name": "id",
          "type": "uint256"
        },
        {
          "internalType": "string",
          "name": "location",
          "type": "string"
        },
        {
          "internalType": "uint256",
          "name": "area",
          "type": "uint256"
        },
        {
          "internalType": "address",
          "name": "owner",
          "type": "address"
        },
        {
          "internalType": "uint256",
          "name": "price",
          "type": "uint256"
        },
        {
          "internalType": "bool",
          "name": "forSale",
          "type": "bool"
        },
        {
          "internalType": "string",
          "name": "documentHash",
          "type": "string"
        }
      ],
      "stateMutability": "view",
      "type": "function",
      "constant": true
    },
    {
      "inputs": [],
      "name": "name",
      "outputs": [
        {
          "internalType": "string",
          "name": "",
          "type": "string"
        }
      ],
      "stateMutability": "view",
      "type": "function",
      "constant": true
    },
    {
      "inputs": [],
      "name": "owner",
      "outputs": [
        {
          "internalType": "address",
          "name": "",
          "type": "address"
        }
      ],
      "stateMutability": "view",
      "type": "function",
      "constant": true
    },
    {
      "inputs": [
        {
          "internalType": "uint256",
          "name": "tokenId",
          "type": "uint256"
        }
      ],
      "name": "ownerOf",
      "outputs": [
        {
          "internalType": "address",
          "name": "",
          "type": "address"
        }
      ],
      "stateMutability": "view",
      "type": "function",
      "constant": true
    },
    {
      "inputs": [],
      "name": "renounceOwnership",
      "outputs": [],
      "stateMutability": "nonpayable",
      "type": "function"
    },
    {
      "inputs": [
        {
          "internalType": "address",
          "name": "from",
          "type": "address"
        },
        {
          "internalType": "address",
          "name": "to",
          "type": "address"
        },
        {
          "internalType": "uint256",
          "name": "tokenId",
          "type": "uint256"
        }
      ],
      "name": "safeTransferFrom",
      "outputs": [],
      "stateMutability": "nonpayable",
      "type": "function"
    },
    {
      "inputs": [
        {
          "internalType": "address",
          "name": "from",
          "type": "address"
        },
        {
          "internalType": "address",
          "name": "to",
          "type": "address"
        },
        {
          "internalType": "uint256",
          "name": "tokenId",
          "type": "uint256"
        },
        {
          "internalType": "bytes",
          "name": "data",
          "type": "bytes"
        }
      ],
      "name": "safeTransferFrom",
      "outputs": [],
      "stateMutability": "nonpayable",
      "type": "function"
    },
    {
      "inputs": [
        {
          "internalType": "address",
          "name": "operator",
          "type": "address"
        },
        {
          "internalType": "bool",
          "name": "approved",
          "type": "bool"
        }
      ],
      "name": "setApprovalForAll",
      "outputs": [],
      "stateMutability": "nonpayable",
      "type": "function"
    },
    {
      "inputs": [
        {
          "internalType": "bytes4",
          "name": "interfaceId",
          "type": "bytes4"
        }
      ],
      "name": "supportsInterface",
      "outputs": [
        {
          "internalType": "bool",
          "name": "",
          "type": "bool"
        }
      ],
      "stateMutability": "view",
      "type": "function",
      "constant": true
    },
    {
      "inputs": [],
      "name": "symbol",
      "outputs": [
        {
          "internalType": "string",
          "name": "",
          "type": "string"
        }
      ],
      "stateMutability": "view",
      "type": "function",
      "constant": true
    },
    {
      "inputs": [
        {
          "internalType": "uint256",
          "name": "tokenId",
          "type": "uint256"
        }
      ],
      "name": "tokenURI",
      "outputs": [
        {
          "internalType": "string",
          "name": "",
          "type": "string"
        }
      ],
      "stateMutability": "view",
      "type": "function",
      "constant": true
    },
    {
      "inputs": [
        {
          "internalType": "uint256",
          "name": "",
          "type": "uint256"
        },
        {
          "internalType": "uint256",
          "name": "",
          "type": "uint256"
        }
      ],
      "name": "transactionHistory",
      "outputs": [
        {
          "internalType": "address",
          "name": "from",
          "type": "address"
        },
        {
          "internalType": "address",
          "name": "to",
          "type": "address"
        },
        {
          "internalType": "uint256",
          "name": "price",
          "type": "uint256"
        },
        {
          "internalType": "uint256",
          "name": "timestamp",
          "type": "uint256"
        }
      ],
      "stateMutability": "view",
      "type": "function",
      "constant": true
    },
    {
      "inputs": [
        {
          "internalType": "address",
          "name": "from",
          "type": "address"
        },
        {
          "internalType": "address",
          "name": "to",
          "type": "address"
        },
        {
          "internalType": "uint256",
          "name": "tokenId",
          "type": "uint256"
        }
      ],
      "name": "transferFrom",
      "outputs": [],
      "stateMutability": "nonpayable",
      "type": "function"
    },
    {
      "inputs": [
        {
          "internalType": "address",
          "name": "newOwner",
          "type": "address"
        }
      ],
      "name": "transferOwnership",
      "outputs": [],
      "stateMutability": "nonpayable",
      "type": "function"
    },
    {
      "inputs": [
        {
          "internalType": "string",
          "name": "location",
          "type": "string"
        },
        {
          "internalType": "uint256",
          "name": "area",
          "type": "uint256"
        },
        {
          "internalType": "string",
          "name": "documentHash",
          "type": "string"
        },
        {
          "internalType": "string",
          "name": "tokenURI",
          "type": "string"
        }
      ],
      "name": "registerLand",
      "outputs": [
        {
          "internalType": "uint256",
          "name": "",
          "type": "uint256"
        }
      ],
      "stateMutability": "nonpayable",
      "type": "function"
    },
    {
      "inputs": [
        {
          "internalType": "uint256",
          "name": "tokenId",
          "type": "uint256"
        },
        {
          "internalType": "uint256",
          "name": "price",
          "type": "uint256"
        }
      ],
      "name": "updateLandPrice",
      "outputs": [],
      "stateMutability": "nonpayable",
      "type": "function"
    },
    {
      "inputs": [
        {
          "internalType": "uint256",
          "name": "tokenId",
          "type": "uint256"
        },
        {
          "internalType": "bool",
          "name": "isForSale",
          "type": "bool"
        }
      ],
      "name": "setForSale",
      "outputs": [],
      "stateMutability": "nonpayable",
      "type": "function"
    },
    {
      "inputs": [
        {
          "internalType": "uint256",
          "name": "tokenId",
          "type": "uint256"
        }
      ],
      "name": "buyLand",
      "outputs": [],
      "stateMutability": "payable",
      "type": "function",
      "payable": true
    },
    {
      "inputs": [
        {
          "internalType": "uint256",
          "name": "tokenId",
          "type": "uint256"
        }
      ],
      "name": "getTransactionHistory",
      "outputs": [
        {
          "components": [
            {
              "internalType": "address",
              "name": "from",
              "type": "address"
            },
            {
              "internalType": "address",
              "name": "to",
              "type": "address"
            },
            {
              "internalType": "uint256",
              "name": "price",
              "type": "uint256"
            },
            {
              "internalType": "uint256",
              "name": "timestamp",
              "type": "uint256"
            }
          ],
          "internalType": "struct LandRegistry.Transaction[]",
          "name": "",
          "type": "tuple[]"
        }
      ],
      "stateMutability": "view",
      "type": "function",
      "constant": true
    },
    {
      "inputs": [
        {
          "internalType": "uint256",
          "name": "tokenId",
          "type": "uint256"
        }
      ],
      "name": "getLandDetails",
      "outputs": [
        {
          "components": [
            {
              "internalType": "uint256",
              "name": "id",
              "type": "uint256"
            },
            {
              "internalType": "string",
              "name": "location",
              "type": "string"
            },
            {
              "internalType": "uint256",
              "name": "area",
              "type": "uint256"
            },
            {
              "internalType": "address",
              "name": "owner",
              "type": "address"
            },
            {
              "internalType": "uint256",
              "name": "price",
              "type": "uint256"
            },
            {
              "internalType": "bool",
              "name": "forSale",
              "type": "bool"
            },
            {
              "internalType": "string",
              "name": "documentHash",
              "type": "string"
            }
          ],
          "internalType": "struct LandRegistry.Land",
          "name": "",
          "type": "tuple"
        }
      ],
      "stateMutability": "view",
      "type": "function",
      "constant": true
    },
    {
      "inputs": [
        {
          "internalType": "address",
          "name": "owner",
          "type": "address"
        }
      ],
      "name": "getLandsByOwner",
      "outputs": [
        {
          "internalType": "uint256[]",
          "name": "",
          "type": "uint256[]"
        }
      ],
      "stateMutability": "view",
      "type": "function",
      "constant": true
    }
  ],
  "bytecode": "0x608034620003f85767ffffffffffffffff90604081810183811183821017620003c9578152600c825260207f4c616e64526567697374727900000000000000000000000000000000000000008184015281519382850185811082821117620003c9578352600485527f4c414e4400000000000000000000000000000000000000000000000000000000828601528351818111620003c9576000948554936002928386049260018097168015620003be575b8385101462000391578190601f948581116200033f575b508390858311600114620002d5578a92620002c9575b505060088202850a6000190419169084021787555b87519384116200029c578454858482049116801562000291575b8282101462000264578281116200021e575b508091808511600114620001b157505085968394959693620001a5575b505082810292600802900a6000190419161790555b6007805433600160a060020a0319821681179092559151929091600160a060020a0316907f8be0079c531659141344cd1fd0a4f28419497f9722a3daafe3b4186f6b6457e09080a36123099081620003fe8239f35b0151915038806200013b565b9091601f949394198416988689528389209389905b8b821062000206575050848798999a10620001ea575b505050500201905562000150565b0151908316600802840a600019041916905538808080620001dc565b808985978294968601518155019601930190620001c6565b858852818820828481818901048301938289106200025a575b0104019086905b8281106200024e5750506200011e565b8981550186906200023e565b9350829362000237565b6024887f4e487b710000000000000000000000000000000000000000000000000000000081526022600452fd5b90607f16906200010c565b6024877f4e487b710000000000000000000000000000000000000000000000000000000081526041600452fd5b015190503880620000dd565b8a8052848b208994508793929091601f1984168d5b888282106200032557505084116200030a575b50505002018755620000f2565b0151600883881602840a6000190419169055388080620002fd565b8484015186558d988c9850909501949384019301620002ea565b909150898052838a208486818187010483019382871062000387575b9186959493918c93010401915b82811062000378575050620000c7565b8c81558594508a910162000368565b935082936200035b565b6024897f4e487b710000000000000000000000000000000000000000000000000000000081526022600452fd5b93607f1693620000b0565b7f4e487b7100000000000000000000000000000000000000000000000000000000600052604160045260246000fd5b600080fdfe608080604052600436101561001357600080fd5b7c01000000000000000000000000000000000000000000000000000000006000350490816301ffc9a7146118015750806306fdde0314611757578063081812fc14611739578063095ea7b31461159f57806323b872dd1461157657806342842e0e1461154e578063455b9d23146113d15780634c33fbb7146113775780636352211e1461134857806370a082311461129b578063715018a6146112475780638426813914610b865780638da5cb5b14610b5f57806395d89b4114610a82578063a22cb465146109a9578063b88d4fde14610947578063c87b56dd146108e7578063ced3955814610734578063e261f1e514610692578063e985e9c51461063b578063ee6ec41d146105d2578063f0a6c16b146104b1578063f2fde38b146103d6578063f692f5e7146102d15763fe0cb7dc1461014e57600080fd5b346102cc576020806003193601126102cc57600435606060c0604051610173816119b7565b6000815282858201526000604082015260008382015260006080820152600060a082015201526101a281611fc4565b1561028557600052600981526040600020610281604051916101c3836119b7565b805483526101d360018201611aeb565b84840190815260028201549160408501928352600160a060020a038060038301541690606087019182526004830154916080880192835261025361022a600660ff6005880154169660a08c01971515885201611aeb565b9560c08a019687526040519a8b9a818c5251908b01525160e060408b01526101008a0190611900565b95516060890152511660808701525160a086015251151560c085015251838203601f190160e0850152611900565b0390f35b6064826040519060e560020a62461bcd0282526004820152601360248201527f4c616e6420646f6573206e6f74206578697374000000000000000000000000006044820152fd5b600080fd5b346102cc576020806003193601126102cc57600435600052600a815260406000209081546102fe81612293565b9061030c6040519283611a0b565b8082528282018094600052836000206000915b83831061038b5760408051878152865181890181905289928201908960005b82811061034b5784840385f35b85518051600160a060020a03908116865281840151168584015260408082015190860152606090810151908501529481019460809093019260010161033e565b60048660019260405161039d816119d3565b600160a060020a03808754168252858701541683820152600286015460408201526003860154606082015281520192019201919061031f565b346102cc5760203660031901126102cc576103ef611940565b6103f7611baa565b600160a060020a038091169081156104445760075482600160a060020a0319821617600755167f8be0079c531659141344cd1fd0a4f28419497f9722a3daafe3b4186f6b6457e0600080a3005b608460405160e560020a62461bcd02815260206004820152602660248201527f4f776e61626c653a206e6577206f776e657220697320746865207a65726f206160448201527f64647265737300000000000000000000000000000000000000000000000000006064820152fd5b346102cc5760403660031901126102cc576004356104cd611a9e565b6104e96104d983611c53565b600160a060020a0316331461221f565b816000526009602052600460406000200154158015906105ca575b1561055d5760207f410856f5b20bcc9d4f45bf60117c2194a3540a88fdb7e21d77ea376a576baf729183600052600982526105528160056040600020019060ff801983541691151516179055565b6040519015158152a2005b608460405160e560020a62461bcd02815260206004820152602960248201527f5072696365206d75737420626520736574206265666f7265206c697374696e6760448201527f20666f722073616c6500000000000000000000000000000000000000000000006064820152fd5b508015610504565b346102cc576105e0366119a1565b90600052600a602052604060002080548210156102cc5760809161060391611b8e565b50600160a060020a03908181541691600182015416906003600282015491015491604051938452602084015260408301526060820152f35b346102cc5760403660031901126102cc57610654611940565b61065c611956565b90600160a060020a03809116600052600560205260406000209116600052602052602060ff604060002054166040519015158152f35b346102cc5760203660031901126102cc576004356000526009602052604060002080546102816106c460018401611aeb565b92600281015490600160a060020a036003820154169060048101546106f3600660ff6005850154169301611aeb565b92610710604051988998895260e060208a015260e0890190611900565b94604088015260608701526080860152151560a085015283820360c0850152611900565b6020806003193601126102cc5760043590816000526009815260ff60056040600020015416156108a057816000526009815260046040600020015434106108595761077e82611c53565b600160a060020a03811660003415610850575b600080808093853491f115610844577f20b4587b96d546fb8dda06f8a11cc80fd5debab09bf4795380734af50f3d259c92610804856060946107fd6040516107d8816119d3565b8681523386820152346040820152428882015283600052600a8652604060002061214a565b3390611e9a565b8460005260098152600560406000206003810133600160a060020a03198254161790550160ff1981541690556040519182523390820152346040820152a2005b6040513d6000823e3d90fd5b506108fc610791565b6064906040519060e560020a62461bcd0282526004820152601460248201527f496e73756666696369656e74207061796d656e740000000000000000000000006044820152fd5b6064906040519060e560020a62461bcd0282526004820152601460248201527f4c616e64206973206e6f7420666f722073616c650000000000000000000000006044820152fd5b346102cc5760203660031901126102cc5760043561090c61090782611fc4565b611c05565b60005260066020526102816109246040600020611aeb565b6000604051610932816119ef565b52604051918291602083526020830190611900565b346102cc5760803660031901126102cc57610960611940565b610968611956565b6064359167ffffffffffffffff83116102cc57366023840112156102cc5761099d6109a7933690602481600401359101611a49565b9160443591611d0f565b005b346102cc5760403660031901126102cc576109c2611940565b600160a060020a036109d2611a9e565b911690813314610a3b57336000526005602052604060002082600052602052610a0b8160406000209060ff801983541691151516179055565b60405190151581527f17307eab39ab6107e8899845ad3d59bd9653f200f220920489ca2b5937696c3160203392a3005b606460405160e560020a62461bcd02815260206004820152601960248201527f4552433732313a20617070726f766520746f2063616c6c6572000000000000006044820152fd5b346102cc5760003660031901126102cc576040516000600182815492610aa784611aad565b92838352602094858282169182600014610b40575050600114610ae6575b50610ad292500383611a0b565b610281604051928284938452830190611900565b6000818152859250907fb10e2d527612073b26eecdfd717e6a320cf44b4afac2b0732d9fcbe2b7fa0cf65b858310610b28575050610ad2935082010185610ac5565b80548389018501528794508693909201918101610b11565b60ff191685820152610ad295151581028501019250879150610ac59050565b346102cc5760003660031901126102cc576020600160a060020a0360075416604051908152f35b346102cc5760803660031901126102cc5760043567ffffffffffffffff81116102cc57610bb7903690600401611a80565b60443567ffffffffffffffff81116102cc57610bd7903690600401611a80565b60643567ffffffffffffffff81116102cc57610bf7903690600401611a80565b906001600854019182600855331561120057610c1b610c1584611fc4565b156121d1565b610c27610c1584611fc4565b336000526003602052604060002060018154019055826000526002602052604060002033600160a060020a0319825416179055823360007fddf252ad1be2c89b69c2b068fc378daa952ba7f163c4a11628f55a4df523b3ef8180a4610c8b83611fc4565b156111935782600052600660205260406000209080519067ffffffffffffffff8211610fea578190610cbd8454611aad565b601f8111611143575b50602090601f83116001146110d8576000926110cd575b5050816002029160080260020a6000190419161790555b7ff8e1a15aba9398e019f0b49df1a4fde98ee17ae345cb5f6b5e2c27f5033e8ce76020604051848152a160405190610d2b826119b7565b828252836020830152602435604083015233606083015260006080830152600060a083015260c0820152816000526009602052604060002081518155602082015180519067ffffffffffffffff8211610fea57610d8b6001840154611aad565b601f8111611086575b50602090601f831160011461100e57918060c09492600694600092611003575b5050816002029160080260020a6000190419161760018201555b6040840151600282015560038101600160a060020a03606086015116600160a060020a031982541617905560808401516004820155610e2260a08501511515600583019060ff801983541691151516179055565b0191015180519067ffffffffffffffff8211610fea57610e428354611aad565b601f8111610fa1575b50916020949184938690601f8311600114610f0f579180610ef494927f0a14f5ae2f9ee538270143056894f8128fb116c653fb2fde847dcebdd181622e9694600092610f04575b5050816002029160080260020a6000190419161790555b610ee0604051610eb8816119d3565b6000815233888201526000604082015242606082015285600052600a8852604060002061214a565b604051918291604083526040830190611900565b33878301520390a2604051908152f35b015190508980610e92565b90601f1983169184600052886000209260005b818110610f87575093610ef49593600193600293837f0a14f5ae2f9ee538270143056894f8128fb116c653fb2fde847dcebdd181622e9a9810610f6c575b50505002019055610ea9565b01516008601f841602840a60001904191690558a8080610f60565b828401518555899850600190940193928a01928a01610f22565b8360005260206000206020601f85010481019160208510610fe0575b601f602091010401905b818110610fd45750610e4b565b60008155600101610fc7565b9091508190610fbd565b60e060020a634e487b7102600052604160045260246000fd5b015190508880610db4565b906001840160005260206000209160005b601f198516811061106e57508360c09593600193600293600697601f19811610611053575b50505002016001820155610dce565b01516008601f841602840a6000190419169055898080611044565b9192602060018192868501518155019401920161101f565b6001840160005260206000206020601f8501048101602085106110c6575b6020601f840104820181106110ba575050610d94565b600081556001016110a4565b50806110a4565b015190508680610cdd565b60008581526020812093505b601f198516811061112b5750918391600293600195601f19811610611110575b50505002019055610cf4565b01516008601f841602840a6000190419169055878080611104565b919260206001819286850151815501940192016110e4565b9091508360005260206000206020601f85010481016020851061118c575b90849392915b6020601f8401048201811061117d575050610cc6565b60008155859450600101611167565b5080611161565b608460405160e560020a62461bcd02815260206004820152602e60248201527f45524337323155524953746f726167653a2055524920736574206f66206e6f6e60448201527f6578697374656e7420746f6b656e0000000000000000000000000000000000006064820152fd5b606460405160e560020a62461bcd02815260206004820152602060248201527f4552433732313a206d696e7420746f20746865207a65726f20616464726573736044820152fd5b346102cc5760003660031901126102cc57611260611baa565b6000600160a060020a0360075481198116600755167f8be0079c531659141344cd1fd0a4f28419497f9722a3daafe3b4186f6b6457e08280a3005b346102cc5760203660031901126102cc57600160a060020a036112bc611940565b1680156112db5760005260036020526020604060002054604051908152f35b608460405160e560020a62461bcd02815260206004820152602960248201527f4552433732313a2061646472657373207a65726f206973206e6f74206120766160448201527f6c6964206f776e657200000000000000000000000000000000000000000000006064820152fd5b346102cc5760203660031901126102cc576020611366600435611c53565b600160a060020a0360405191168152f35b346102cc5760207fb0ac3f488e66b381e32267d6ee431ad9c9765c5156f8baf98db25c1ce61bb8e56113a8366119a1565b6113b66104d9839593611c53565b836000526009825280600460406000200155604051908152a2005b346102cc576020806003193601126102cc576113eb611940565b600060085460015b818111156114fa575061141e61140883612293565b926114166040519485611a0b565b808452612293565b8285019390601f190136853760009060015b8381111561147b57868587604051928392818401908285525180915260408401929160005b82811061146457505050500390f35b835185528695509381019392810192600101611455565b61148481611fc4565b806114dd575b61149d575b611498906122ab565b611430565b9184518110156114c4576114bc818489806114989502890101526122ab565b92905061148f565b60e060020a634e487b7102600052603260045260246000fd5b506114e781611c53565b600160a060020a0380841691161461148a565b61150381611fc4565b80611531575b61151c575b611517906122ab565b6113f3565b91611529611517916122ab565b92905061150e565b5061153b81611c53565b600160a060020a03808616911614611509565b346102cc576109a761155f3661196c565b906040519261156d846119ef565b60008452611d0f565b346102cc576109a76115873661196c565b9161159a6115958433611db8565b611c9b565b611e9a565b346102cc5760403660031901126102cc576115b8611940565b60243590600160a060020a0380806115cf85611c53565b169216918083146116cc578033149081156116a7575b501561163a57826000526004602052604060002082600160a060020a031982541617905561161283611c53565b167f8c5be1e5ebec7d5bd14f71427d1e84f3dd0314c0f7b2291e5b200ac8c7c3b925600080a4005b608460405160e560020a62461bcd02815260206004820152603d60248201527f4552433732313a20617070726f76652063616c6c6572206973206e6f7420746f60448201527f6b656e206f776e6572206f7220617070726f76656420666f7220616c6c0000006064820152fd5b9050600052600560205260406000203360005260205260ff60406000205416846115e5565b608460405160e560020a62461bcd02815260206004820152602160248201527f4552433732313a20617070726f76616c20746f2063757272656e74206f776e6560448201527f72000000000000000000000000000000000000000000000000000000000000006064820152fd5b346102cc5760203660031901126102cc576020611366600435611c75565b346102cc5760003660031901126102cc5760405160008054908261177a83611aad565b91828252602093600190858282169182600014610b405750506001146117a75750610ad292500383611a0b565b6000808052859250907f290decd9548b62a8d60345a988386fc84ba6bc95484008f6362f93160ef3e5635b8583106117e9575050610ad2935082010185610ac5565b805483890185015287945086939092019181016117d2565b346102cc5760203660031901126102cc57600435907bffffffffffffffffffffffffffffffffffffffffffffffffffffffff1982168092036102cc57817f490649060000000000000000000000000000000000000000000000000000000060209314908115611872575b5015158152f35b7f80ac58cd000000000000000000000000000000000000000000000000000000008114915081156118d6575b81156118ac575b508361186b565b7f01ffc9a700000000000000000000000000000000000000000000000000000000915014836118a5565b7f5b5e139f000000000000000000000000000000000000000000000000000000008114915061189e565b919082519283825260005b84811061192c575050826000602080949584010152601f8019910116010190565b60208183018101518483018201520161190b565b60043590600160a060020a03821682036102cc57565b60243590600160a060020a03821682036102cc57565b60609060031901126102cc57600160a060020a039060043582811681036102cc579160243590811681036102cc579060443590565b60409060031901126102cc576004359060243590565b60e0810190811067ffffffffffffffff821117610fea57604052565b6080810190811067ffffffffffffffff821117610fea57604052565b6020810190811067ffffffffffffffff821117610fea57604052565b90601f8019910116810190811067ffffffffffffffff821117610fea57604052565b67ffffffffffffffff8111610fea57601f01601f191660200190565b929192611a5582611a2d565b91611a636040519384611a0b565b8294818452818301116102cc578281602093846000960137010152565b9080601f830112156102cc57816020611a9b93359101611a49565b90565b6024359081151582036102cc57565b9060016002830492168015611ae1575b6020831014611ac857565b60e060020a634e487b7102600052602260045260246000fd5b91607f1691611abd565b90604051918260008254611afe81611aad565b908184526020946001918281169081600014611b6d5750600114611b2e575b505050611b2c92500383611a0b565b565b600090815285812095935091905b818310611b55575050611b2c9350820101388080611b1d565b85548884018501529485019487945091830191611b3c565b92505050611b2c94925060ff19168284015215158102820101388080611b1d565b80548210156114c4576000526004602060002091020190600090565b600160a060020a03600754163303611bbe57565b606460405160e560020a62461bcd02815260206004820152602060248201527f4f776e61626c653a2063616c6c6572206973206e6f7420746865206f776e65726044820152fd5b15611c0c57565b606460405160e560020a62461bcd02815260206004820152601860248201527f4552433732313a20696e76616c696420746f6b656e20494400000000000000006044820152fd5b6000526002602052600160a060020a0360406000205416611a9b811515611c05565b611c8161090782611fc4565b6000526004602052600160a060020a036040600020541690565b15611ca257565b608460405160e560020a62461bcd02815260206004820152602d60248201527f4552433732313a2063616c6c6572206973206e6f7420746f6b656e206f776e6560448201527f72206f7220617070726f766564000000000000000000000000000000000000006064820152fd5b90611d33939291611d236115958433611db8565b611d2e838383611e9a565b611fe0565b15611d3a57565b60405160e560020a62461bcd02815280611d5660048201611d5a565b0390fd5b60809060208152603260208201527f4552433732313a207472616e7366657220746f206e6f6e20455243373231526560408201527f63656976657220696d706c656d656e746572000000000000000000000000000060608201520190565b90600160a060020a038080611dcc84611c53565b16931691838314938415611dff575b508315611de9575b50505090565b611df591929350611c75565b1614388080611de3565b909350600052600560205260406000208260005260205260ff604060002054169238611ddb565b15611e2d57565b608460405160e560020a62461bcd02815260206004820152602560248201527f4552433732313a207472616e736665722066726f6d20696e636f72726563742060448201527f6f776e65720000000000000000000000000000000000000000000000000000006064820152fd5b90611ec291611ea884611c53565b91600160a060020a03938493848094169485911614611e26565b16918215611f585781611edf91611ed886611c53565b1614611e26565b7fddf252ad1be2c89b69c2b068fc378daa952ba7f163c4a11628f55a4df523b3ef6000848152600460205260408120600160a060020a03199081815416905583825260036020526040822060001981540190558482526040822060018154019055858252600260205284604083209182541617905580a4565b608460405160e560020a62461bcd028152602060048201526024808201527f4552433732313a207472616e7366657220746f20746865207a65726f2061646460448201527f72657373000000000000000000000000000000000000000000000000000000006064820152fd5b6000526002602052600160a060020a0360406000205416151590565b9293919290803b156121405761204e94600160a060020a0394604051928391877f150b7a02000000000000000000000000000000000000000000000000000000009687855233600486015216602484015260448301526080606483015281806020998a956084830190611900565b03916000988991165af18491816120e7575b506120c1575050503d6000146120b9573d61207a81611a2d565b906120886040519283611a0b565b81528091833d92013e5b805191826120b65760405160e560020a62461bcd02815280611d5660048201611d5a565b01fd5b506060612092565b7bffffffffffffffffffffffffffffffffffffffffffffffffffffffff19161492509050565b9091508581813d8311612139575b6120ff8183611a0b565b8101031261213557517bffffffffffffffffffffffffffffffffffffffffffffffffffffffff1981168103612135579038612060565b8480fd5b503d6120f5565b5050915050600190565b805468010000000000000000811015610fea5761216c91600182018155611b8e565b9190916121b8576060600391600160a060020a0380825116600160a060020a03199081875416178655600186019160208401511690825416179055604081015160028501550151910155565b60e060020a634e487b7102600052600060045260246000fd5b156121d857565b606460405160e560020a62461bcd02815260206004820152601c60248201527f4552433732313a20746f6b656e20616c7265616479206d696e746564000000006044820152fd5b1561222657565b608460405160e560020a62461bcd02815260206004820152602260248201527f596f7520617265206e6f7420746865206f776e6572206f662074686973206c6160448201527f6e640000000000000000000000000000000000000000000000000000000000006064820152fd5b67ffffffffffffffff8111610fea5760208091020190565b60001981146122ba5760010190565b60e060020a634e487b7102600052601160045260246000fdfea2646970667358221220bd0c96dd8b8c0d39a5741abb7b908f110e50b598c4767bdaadf50a6aef2bdcde64736f6c63430008150033",
  "immutableReferences": {},
  "source": "// SPDX-License-Identifier: MIT\r\npragma solidity ^0.8.0;\r\n\r\nimport \"@openzeppelin/contracts/token/ERC721/extensions/ERC721URIStorage.sol\";\r\nimport \"@openzeppelin/contracts/utils/Counters.sol\";\r\nimport \"@openzeppelin/contracts/access/Ownable.sol\";\r\n\r\ncontract LandRegistry is ERC721URIStorage, Ownable {\r\n    using Counters for Counters.Counter;\r\n    Counters.Counter private _tokenIds;\r\n    \r\n    // Cu trc d liu cho mt bt ng sn\r\n    struct Land {\r\n        uint256 id;\r\n        string location;\r\n        uint256 area; // din tch tnh bng mt vung\r\n        address owner;\r\n        uint256 price;\r\n        bool forSale;\r\n        string documentHash; // IPFS hash ca giy t lin quan\r\n    }\r\n\r\n    // Lu tr thng tin cc bt ng sn\r\n    mapping(uint256 => Land) public lands;\r\n    \r\n    // Lu tr lch s giao dch ca bt ng sn\r\n    struct Transaction {\r\n        address from;\r\n        address to;\r\n        uint256 price;\r\n        uint256 timestamp;\r\n    }\r\n    \r\n    // nh x t tokenId sang lch s giao dch\r\n    mapping(uint256 => Transaction[]) public transactionHistory;\r\n    \r\n    // S kin\r\n    event LandRegistered(uint256 indexed tokenId, string location, address owner);\r\n    event LandTransferred(uint256 indexed tokenId, address from, address to, uint256 price);\r\n    event LandPriceChanged(uint256 indexed tokenId, uint256 newPrice);\r\n    event LandForSale(uint256 indexed tokenId, bool isForSale);\r\n    \r\n    // Ch ch s hu hin ti ca t\r\n    modifier onlyLandOwner(uint256 tokenId) {\r\n        require(ownerOf(tokenId) == msg.sender, \"You are not the owner of this land\");\r\n        _;\r\n    }\r\n    \r\n    constructor() ERC721(\"LandRegistry\", \"LAND\") {}\r\n    \r\n    // ng k bt ng sn mi\r\n    function registerLand(\r\n        string memory location,\r\n        uint256 area,\r\n        string memory documentHash,\r\n        string memory tokenURI\r\n    ) public returns (uint256) {\r\n        _tokenIds.increment();\r\n        uint256 newTokenId = _tokenIds.current();\r\n        \r\n        _mint(msg.sender, newTokenId);\r\n        _setTokenURI(newTokenId, tokenURI);\r\n        \r\n        lands[newTokenId] = Land(\r\n            newTokenId,\r\n            location,\r\n            area,\r\n            msg.sender,\r\n            0,\r\n            false,\r\n            documentHash\r\n        );\r\n        \r\n        // Ghi nhn giao dch u tin (ng k)\r\n        Transaction memory newTransaction = Transaction(\r\n            address(0),\r\n            msg.sender,\r\n            0,\r\n            block.timestamp\r\n        );\r\n        transactionHistory[newTokenId].push(newTransaction);\r\n        \r\n        emit LandRegistered(newTokenId, location, msg.sender);\r\n        \r\n        return newTokenId;\r\n    }\r\n    \r\n    // Cp nht gi bt ng sn\r\n    function updateLandPrice(uint256 tokenId, uint256 price) public onlyLandOwner(tokenId) {\r\n        lands[tokenId].price = price;\r\n        emit LandPriceChanged(tokenId, price);\r\n    }\r\n    \r\n    // t/hy trng thi bn\r\n    function setForSale(uint256 tokenId, bool isForSale) public onlyLandOwner(tokenId) {\r\n        require(lands[tokenId].price > 0 || !isForSale, \"Price must be set before listing for sale\");\r\n        lands[tokenId].forSale = isForSale;\r\n        emit LandForSale(tokenId, isForSale);\r\n    }\r\n    \r\n    // Mua bt ng sn\r\n    function buyLand(uint256 tokenId) public payable {\r\n        require(lands[tokenId].forSale, \"Land is not for sale\");\r\n        require(msg.value >= lands[tokenId].price, \"Insufficient payment\");\r\n        \r\n        address seller = ownerOf(tokenId);\r\n        \r\n        // Thc hin giao dch\r\n        payable(seller).transfer(msg.value);\r\n        \r\n        // Cp nht lch s giao dch\r\n        Transaction memory newTransaction = Transaction(\r\n            seller,\r\n            msg.sender,\r\n            msg.value,\r\n            block.timestamp\r\n        );\r\n        transactionHistory[tokenId].push(newTransaction);\r\n        \r\n        // Chuyn nhng NFT\r\n        _transfer(seller, msg.sender, tokenId);\r\n        \r\n        // Cp nht thng tin bt ng sn\r\n        lands[tokenId].owner = msg.sender;\r\n        lands[tokenId].forSale = false;\r\n        \r\n        emit LandTransferred(tokenId, seller, msg.sender, msg.value);\r\n    }\r\n    \r\n    // Ly lch s giao dch ca bt ng sn\r\n    function getTransactionHistory(uint256 tokenId) public view returns (Transaction[] memory) {\r\n        return transactionHistory[tokenId];\r\n    }\r\n    \r\n    // Ly thng tin chi tit ca bt ng sn\r\n    function getLandDetails(uint256 tokenId) public view returns (Land memory) {\r\n        require(_exists(tokenId), \"Land does not exist\");\r\n        return lands[tokenId];\r\n    }\r\n    \r\n    // Ly tt c bt ng sn ca mt ngi dng\r\n    function getLandsByOwner(address owner) public view returns (uint256[] memory) {\r\n        uint256 landCount = 0;\r\n        uint256 totalLands = _tokenIds.current();\r\n        \r\n        // m s lng t thuc s hu ca owner\r\n        for (uint256 i = 1; i <= totalLands; i++) {\r\n            if (_exists(i) && ownerOf(i) == owner) {\r\n                landCount++;\r\n            }\r\n        }\r\n        \r\n        // To mng kt qu\r\n        uint256[] memory result = new uint256[](landCount);\r\n        uint256 index = 0;\r\n        \r\n        // Lc ra cc mnh t thuc s hu ca owner\r\n        for (uint256 i = 1; i <= totalLands; i++) {\r\n            if (_exists(i) && ownerOf(i) == owner) {\r\n                result[index] = i;\r\n                index++;\r\n            }\r\n        }\r\n        \r\n        return result;\r\n    }\r\n}",
  "sourcePath": "E:\\DApps\\Smartcontract_Blockchain\\contracts\\LandRegistry.sol",
  "compiler": {
    "name": "solc",
    "version": "0.8.21+commit.d9974bed.Emscripten.clang"
  },
  "schemaVersion": "3.4.16",
  "updatedAt": "2025-05-20T13:10:37.473Z",
  "networkType": "ethereum",
  "devdoc": {
    "events": {
      "Approval(address,address,uint256)": {
        "details": "Emitted when `owner` enables `approved` to manage the `tokenId` token."
      },
      "ApprovalForAll(address,address,bool)": {
        "details": "Emitted when `owner` enables or disables (`approved`) `operator` to manage all of its assets."
      },
      "BatchMetadataUpdate(uint256,uint256)": {
        "details": "This event emits when the metadata of a range of tokens is changed. So that the third-party platforms such as NFT market could timely update the images and related attributes of the NFTs."
      },
      "MetadataUpdate(uint256)": {
        "details": "This event emits when the metadata of a token is changed. So that the third-party platforms such as NFT market could timely update the images and related attributes of the NFT."
      },
      "Transfer(address,address,uint256)": {
        "details": "Emitted when `tokenId` token is transferred from `from` to `to`."
      }
    },
    "kind": "dev",
    "methods": {
      "approve(address,uint256)": {
        "details": "See {IERC721-approve}."
      },
      "balanceOf(address)": {
        "details": "See {IERC721-balanceOf}."
      },
      "getApproved(uint256)": {
        "details": "See {IERC721-getApproved}."
      },
      "isApprovedForAll(address,address)": {
        "details": "See {IERC721-isApprovedForAll}."
      },
      "name()": {
        "details": "See {IERC721Metadata-name}."
      },
      "owner()": {
        "details": "Returns the address of the current owner."
      },
      "ownerOf(uint256)": {
        "details": "See {IERC721-ownerOf}."
      },
      "renounceOwnership()": {
        "details": "Leaves the contract without owner. It will not be possible to call `onlyOwner` functions. Can only be called by the current owner. NOTE: Renouncing ownership will leave the contract without an owner, thereby disabling any functionality that is only available to the owner."
      },
      "safeTransferFrom(address,address,uint256)": {
        "details": "See {IERC721-safeTransferFrom}."
      },
      "safeTransferFrom(address,address,uint256,bytes)": {
        "details": "See {IERC721-safeTransferFrom}."
      },
      "setApprovalForAll(address,bool)": {
        "details": "See {IERC721-setApprovalForAll}."
      },
      "supportsInterface(bytes4)": {
        "details": "See {IERC165-supportsInterface}"
      },
      "symbol()": {
        "details": "See {IERC721Metadata-symbol}."
      },
      "tokenURI(uint256)": {
        "details": "See {IERC721Metadata-tokenURI}."
      },
      "transferFrom(address,address,uint256)": {
        "details": "See {IERC721-transferFrom}."
      },
      "transferOwnership(address)": {
        "details": "Transfers ownership of the contract to a new account (`newOwner`). Can only be called by the current owner."
      }
    },
    "version": 1
  },
  "userdoc": {
    "kind": "user",
    "methods": {},
    "version": 1
  }
}