{
  "contractName": "LandRegistry",
  "abi": [
    {
      "inputs": [],
      "stateMutability": "nonpayable",
      "type": "constructor"
    },
    {
      "anonymous": false,
      "inputs": [
        {
          "indexed": true,
          "internalType": "address",
          "name": "owner",
          "type": "address"
        },
        {
          "indexed": true,
          "internalType": "address",
          "name": "approved",
          "type": "address"
        },
        {
          "indexed": true,
          "internalType": "uint256",
          "name": "tokenId",
          "type": "uint256"
        }
      ],
      "name": "Approval",
      "type": "event"
    },
    {
      "anonymous": false,
      "inputs": [
        {
          "indexed": true,
          "internalType": "address",
          "name": "owner",
          "type": "address"
        },
        {
          "indexed": true,
          "internalType": "address",
          "name": "operator",
          "type": "address"
        },
        {
          "indexed": false,
          "internalType": "bool",
          "name": "approved",
          "type": "bool"
        }
      ],
      "name": "ApprovalForAll",
      "type": "event"
    },
    {
      "anonymous": false,
      "inputs": [
        {
          "indexed": false,
          "internalType": "uint256",
          "name": "_fromTokenId",
          "type": "uint256"
        },
        {
          "indexed": false,
          "internalType": "uint256",
          "name": "_toTokenId",
          "type": "uint256"
        }
      ],
      "name": "BatchMetadataUpdate",
      "type": "event"
    },
    {
      "anonymous": false,
      "inputs": [
        {
          "indexed": true,
          "internalType": "uint256",
          "name": "tokenId",
          "type": "uint256"
        },
        {
          "indexed": false,
          "internalType": "bool",
          "name": "isForSale",
          "type": "bool"
        }
      ],
      "name": "LandForSale",
      "type": "event"
    },
    {
      "anonymous": false,
      "inputs": [
        {
          "indexed": true,
          "internalType": "uint256",
          "name": "tokenId",
          "type": "uint256"
        },
        {
          "indexed": false,
          "internalType": "uint256",
          "name": "newPrice",
          "type": "uint256"
        }
      ],
      "name": "LandPriceChanged",
      "type": "event"
    },
    {
      "anonymous": false,
      "inputs": [
        {
          "indexed": true,
          "internalType": "uint256",
          "name": "tokenId",
          "type": "uint256"
        },
        {
          "indexed": false,
          "internalType": "string",
          "name": "location",
          "type": "string"
        },
        {
          "indexed": false,
          "internalType": "address",
          "name": "owner",
          "type": "address"
        }
      ],
      "name": "LandRegistered",
      "type": "event"
    },
    {
      "anonymous": false,
      "inputs": [
        {
          "indexed": true,
          "internalType": "uint256",
          "name": "tokenId",
          "type": "uint256"
        },
        {
          "indexed": false,
          "internalType": "address",
          "name": "from",
          "type": "address"
        },
        {
          "indexed": false,
          "internalType": "address",
          "name": "to",
          "type": "address"
        },
        {
          "indexed": false,
          "internalType": "uint256",
          "name": "price",
          "type": "uint256"
        }
      ],
      "name": "LandTransferred",
      "type": "event"
    },
    {
      "anonymous": false,
      "inputs": [
        {
          "indexed": false,
          "internalType": "uint256",
          "name": "_tokenId",
          "type": "uint256"
        }
      ],
      "name": "MetadataUpdate",
      "type": "event"
    },
    {
      "anonymous": false,
      "inputs": [
        {
          "indexed": true,
          "internalType": "address",
          "name": "previousOwner",
          "type": "address"
        },
        {
          "indexed": true,
          "internalType": "address",
          "name": "newOwner",
          "type": "address"
        }
      ],
      "name": "OwnershipTransferred",
      "type": "event"
    },
    {
      "anonymous": false,
      "inputs": [
        {
          "indexed": true,
          "internalType": "address",
          "name": "from",
          "type": "address"
        },
        {
          "indexed": true,
          "internalType": "address",
          "name": "to",
          "type": "address"
        },
        {
          "indexed": true,
          "internalType": "uint256",
          "name": "tokenId",
          "type": "uint256"
        }
      ],
      "name": "Transfer",
      "type": "event"
    },
    {
      "inputs": [
        {
          "internalType": "address",
          "name": "to",
          "type": "address"
        },
        {
          "internalType": "uint256",
          "name": "tokenId",
          "type": "uint256"
        }
      ],
      "name": "approve",
      "outputs": [],
      "stateMutability": "nonpayable",
      "type": "function"
    },
    {
      "inputs": [
        {
          "internalType": "address",
          "name": "owner",
          "type": "address"
        }
      ],
      "name": "balanceOf",
      "outputs": [
        {
          "internalType": "uint256",
          "name": "",
          "type": "uint256"
        }
      ],
      "stateMutability": "view",
      "type": "function"
    },
    {
      "inputs": [
        {
          "internalType": "uint256",
          "name": "tokenId",
          "type": "uint256"
        }
      ],
      "name": "getApproved",
      "outputs": [
        {
          "internalType": "address",
          "name": "",
          "type": "address"
        }
      ],
      "stateMutability": "view",
      "type": "function"
    },
    {
      "inputs": [
        {
          "internalType": "address",
          "name": "owner",
          "type": "address"
        },
        {
          "internalType": "address",
          "name": "operator",
          "type": "address"
        }
      ],
      "name": "isApprovedForAll",
      "outputs": [
        {
          "internalType": "bool",
          "name": "",
          "type": "bool"
        }
      ],
      "stateMutability": "view",
      "type": "function"
    },
    {
      "inputs": [
        {
          "internalType": "uint256",
          "name": "",
          "type": "uint256"
        }
      ],
      "name": "lands",
      "outputs": [
        {
          "internalType": "uint256",
          "name": "id",
          "type": "uint256"
        },
        {
          "internalType": "string",
          "name": "location",
          "type": "string"
        },
        {
          "internalType": "uint256",
          "name": "area",
          "type": "uint256"
        },
        {
          "internalType": "address",
          "name": "owner",
          "type": "address"
        },
        {
          "internalType": "uint256",
          "name": "price",
          "type": "uint256"
        },
        {
          "internalType": "bool",
          "name": "forSale",
          "type": "bool"
        },
        {
          "internalType": "string",
          "name": "documentHash",
          "type": "string"
        }
      ],
      "stateMutability": "view",
      "type": "function"
    },
    {
      "inputs": [],
      "name": "name",
      "outputs": [
        {
          "internalType": "string",
          "name": "",
          "type": "string"
        }
      ],
      "stateMutability": "view",
      "type": "function"
    },
    {
      "inputs": [],
      "name": "owner",
      "outputs": [
        {
          "internalType": "address",
          "name": "",
          "type": "address"
        }
      ],
      "stateMutability": "view",
      "type": "function"
    },
    {
      "inputs": [
        {
          "internalType": "uint256",
          "name": "tokenId",
          "type": "uint256"
        }
      ],
      "name": "ownerOf",
      "outputs": [
        {
          "internalType": "address",
          "name": "",
          "type": "address"
        }
      ],
      "stateMutability": "view",
      "type": "function"
    },
    {
      "inputs": [],
      "name": "renounceOwnership",
      "outputs": [],
      "stateMutability": "nonpayable",
      "type": "function"
    },
    {
      "inputs": [
        {
          "internalType": "address",
          "name": "from",
          "type": "address"
        },
        {
          "internalType": "address",
          "name": "to",
          "type": "address"
        },
        {
          "internalType": "uint256",
          "name": "tokenId",
          "type": "uint256"
        }
      ],
      "name": "safeTransferFrom",
      "outputs": [],
      "stateMutability": "nonpayable",
      "type": "function"
    },
    {
      "inputs": [
        {
          "internalType": "address",
          "name": "from",
          "type": "address"
        },
        {
          "internalType": "address",
          "name": "to",
          "type": "address"
        },
        {
          "internalType": "uint256",
          "name": "tokenId",
          "type": "uint256"
        },
        {
          "internalType": "bytes",
          "name": "data",
          "type": "bytes"
        }
      ],
      "name": "safeTransferFrom",
      "outputs": [],
      "stateMutability": "nonpayable",
      "type": "function"
    },
    {
      "inputs": [
        {
          "internalType": "address",
          "name": "operator",
          "type": "address"
        },
        {
          "internalType": "bool",
          "name": "approved",
          "type": "bool"
        }
      ],
      "name": "setApprovalForAll",
      "outputs": [],
      "stateMutability": "nonpayable",
      "type": "function"
    },
    {
      "inputs": [
        {
          "internalType": "bytes4",
          "name": "interfaceId",
          "type": "bytes4"
        }
      ],
      "name": "supportsInterface",
      "outputs": [
        {
          "internalType": "bool",
          "name": "",
          "type": "bool"
        }
      ],
      "stateMutability": "view",
      "type": "function"
    },
    {
      "inputs": [],
      "name": "symbol",
      "outputs": [
        {
          "internalType": "string",
          "name": "",
          "type": "string"
        }
      ],
      "stateMutability": "view",
      "type": "function"
    },
    {
      "inputs": [
        {
          "internalType": "uint256",
          "name": "tokenId",
          "type": "uint256"
        }
      ],
      "name": "tokenURI",
      "outputs": [
        {
          "internalType": "string",
          "name": "",
          "type": "string"
        }
      ],
      "stateMutability": "view",
      "type": "function"
    },
    {
      "inputs": [
        {
          "internalType": "uint256",
          "name": "",
          "type": "uint256"
        },
        {
          "internalType": "uint256",
          "name": "",
          "type": "uint256"
        }
      ],
      "name": "transactionHistory",
      "outputs": [
        {
          "internalType": "address",
          "name": "from",
          "type": "address"
        },
        {
          "internalType": "address",
          "name": "to",
          "type": "address"
        },
        {
          "internalType": "uint256",
          "name": "price",
          "type": "uint256"
        },
        {
          "internalType": "uint256",
          "name": "timestamp",
          "type": "uint256"
        }
      ],
      "stateMutability": "view",
      "type": "function"
    },
    {
      "inputs": [
        {
          "internalType": "address",
          "name": "from",
          "type": "address"
        },
        {
          "internalType": "address",
          "name": "to",
          "type": "address"
        },
        {
          "internalType": "uint256",
          "name": "tokenId",
          "type": "uint256"
        }
      ],
      "name": "transferFrom",
      "outputs": [],
      "stateMutability": "nonpayable",
      "type": "function"
    },
    {
      "inputs": [
        {
          "internalType": "address",
          "name": "newOwner",
          "type": "address"
        }
      ],
      "name": "transferOwnership",
      "outputs": [],
      "stateMutability": "nonpayable",
      "type": "function"
    },
    {
      "inputs": [
        {
          "internalType": "string",
          "name": "location",
          "type": "string"
        },
        {
          "internalType": "uint256",
          "name": "area",
          "type": "uint256"
        },
        {
          "internalType": "string",
          "name": "documentHash",
          "type": "string"
        },
        {
          "internalType": "string",
          "name": "tokenURI",
          "type": "string"
        }
      ],
      "name": "registerLand",
      "outputs": [
        {
          "internalType": "uint256",
          "name": "",
          "type": "uint256"
        }
      ],
      "stateMutability": "nonpayable",
      "type": "function"
    },
    {
      "inputs": [
        {
          "internalType": "uint256",
          "name": "tokenId",
          "type": "uint256"
        },
        {
          "internalType": "uint256",
          "name": "price",
          "type": "uint256"
        }
      ],
      "name": "updateLandPrice",
      "outputs": [],
      "stateMutability": "nonpayable",
      "type": "function"
    },
    {
      "inputs": [
        {
          "internalType": "uint256",
          "name": "tokenId",
          "type": "uint256"
        },
        {
          "internalType": "bool",
          "name": "isForSale",
          "type": "bool"
        }
      ],
      "name": "setForSale",
      "outputs": [],
      "stateMutability": "nonpayable",
      "type": "function"
    },
    {
      "inputs": [
        {
          "internalType": "uint256",
          "name": "tokenId",
          "type": "uint256"
        }
      ],
      "name": "buyLand",
      "outputs": [],
      "stateMutability": "payable",
      "type": "function"
    },
    {
      "inputs": [
        {
          "internalType": "uint256",
          "name": "tokenId",
          "type": "uint256"
        }
      ],
      "name": "getTransactionHistory",
      "outputs": [
        {
          "components": [
            {
              "internalType": "address",
              "name": "from",
              "type": "address"
            },
            {
              "internalType": "address",
              "name": "to",
              "type": "address"
            },
            {
              "internalType": "uint256",
              "name": "price",
              "type": "uint256"
            },
            {
              "internalType": "uint256",
              "name": "timestamp",
              "type": "uint256"
            }
          ],
          "internalType": "struct LandRegistry.Transaction[]",
          "name": "",
          "type": "tuple[]"
        }
      ],
      "stateMutability": "view",
      "type": "function"
    },
    {
      "inputs": [
        {
          "internalType": "uint256",
          "name": "tokenId",
          "type": "uint256"
        }
      ],
      "name": "getLandDetails",
      "outputs": [
        {
          "components": [
            {
              "internalType": "uint256",
              "name": "id",
              "type": "uint256"
            },
            {
              "internalType": "string",
              "name": "location",
              "type": "string"
            },
            {
              "internalType": "uint256",
              "name": "area",
              "type": "uint256"
            },
            {
              "internalType": "address",
              "name": "owner",
              "type": "address"
            },
            {
              "internalType": "uint256",
              "name": "price",
              "type": "uint256"
            },
            {
              "internalType": "bool",
              "name": "forSale",
              "type": "bool"
            },
            {
              "internalType": "string",
              "name": "documentHash",
              "type": "string"
            }
          ],
          "internalType": "struct LandRegistry.Land",
          "name": "",
          "type": "tuple"
        }
      ],
      "stateMutability": "view",
      "type": "function"
    },
    {
      "inputs": [
        {
          "internalType": "address",
          "name": "owner",
          "type": "address"
        }
      ],
      "name": "getLandsByOwner",
      "outputs": [
        {
          "internalType": "uint256[]",
          "name": "",
          "type": "uint256[]"
        }
      ],
      "stateMutability": "view",
      "type": "function"
    }
  ],
  "bytecode": "0x60806040523480156200001157600080fd5b506040518060400160405280600c81526020017f4c616e64526567697374727900000000000000000000000000000000000000008152506040518060400160405280600481526020017f4c414e440000000000000000000000000000000000000000000000000000000081525081600090816200008f919062000200565b5060016200009e828262000200565b505050620000cd620000be620000d3640100000000026401000000009004565b640100000000620000d7810204565b620002d3565b3390565b60078054600160a060020a03838116600160a060020a0319831681179093556040519116919082907f8be0079c531659141344cd1fd0a4f28419497f9722a3daafe3b4186f6b6457e090600090a35050565b7f4e487b7100000000000000000000000000000000000000000000000000000000600052604160045260246000fd5b6002810460018216806200016d57607f821691505b602082108103620001a7577f4e487b7100000000000000000000000000000000000000000000000000000000600052602260045260246000fd5b50919050565b601f821115620001fb576000818152602081206020601f86010481016020861015620001d65750805b6020601f860104820191505b81811015620001f757828155600101620001e2565b5050505b505050565b815167ffffffffffffffff8111156200021d576200021d62000129565b62000235816200022e845462000158565b84620001ad565b602080601f831160018114620002715760008415620002545750858301515b60028086026008870290910a6000190419821617865550620001f7565b600085815260208120601f198616915b82811015620002a25788860151825594840194600190910190840162000281565b5085821015620002c357878501516008601f88160260020a60001904191681555b5050505050600202600101905550565b612a0280620002e36000396000f3fe608060405260043610610183576000357c0100000000000000000000000000000000000000000000000000000000900480638da5cb5b116100ee578063e261f1e5116100a7578063f0a6c16b11610081578063f0a6c16b146104b6578063f2fde38b146104d6578063f692f5e7146104f6578063fe0cb7dc1461052357600080fd5b8063e261f1e5146103ef578063e985e9c514610422578063ee6ec41d1461046b57600080fd5b80638da5cb5b1461034957806395d89b4114610367578063a22cb4651461037c578063b88d4fde1461039c578063c87b56dd146103bc578063ced39558146103dc57600080fd5b8063455b9d2311610140578063455b9d23146102795780634c33fbb7146102a65780636352211e146102c657806370a08231146102e6578063715018a614610314578063842681391461032957600080fd5b806301ffc9a71461018857806306fdde03146101bd578063081812fc146101df578063095ea7b31461021757806323b872dd1461023957806342842e0e14610259575b600080fd5b34801561019457600080fd5b506101a86101a33660046120e8565b610550565b60405190151581526020015b60405180910390f35b3480156101c957600080fd5b506101d2610594565b6040516101b49190612155565b3480156101eb57600080fd5b506101ff6101fa366004612168565b610626565b604051600160a060020a0390911681526020016101b4565b34801561022357600080fd5b5061023761023236600461219d565b61064d565b005b34801561024557600080fd5b506102376102543660046121c7565b610789565b34801561026557600080fd5b506102376102743660046121c7565b6107bd565b34801561028557600080fd5b50610299610294366004612203565b6107d8565b6040516101b4919061221e565b3480156102b257600080fd5b506102376102c1366004612262565b610915565b3480156102d257600080fd5b506101ff6102e1366004612168565b61099e565b3480156102f257600080fd5b50610306610301366004612203565b610a06565b6040519081526020016101b4565b34801561032057600080fd5b50610237610aa3565b34801561033557600080fd5b50610306610344366004612333565b610ab7565b34801561035557600080fd5b50600754600160a060020a03166101ff565b34801561037357600080fd5b506101d2610c7e565b34801561038857600080fd5b506102376103973660046123d5565b610c8d565b3480156103a857600080fd5b506102376103b7366004612408565b610c9c565b3480156103c857600080fd5b506101d26103d7366004612168565b610cd7565b6102376103ea366004612168565b610ddf565b3480156103fb57600080fd5b5061040f61040a366004612168565b611000565b6040516101b49796959493929190612478565b34801561042e57600080fd5b506101a861043d3660046124d4565b600160a060020a03918216600090815260056020908152604080832093909416825291909152205460ff1690565b34801561047757600080fd5b5061048b610486366004612262565b61115d565b60408051600160a060020a0395861681529490931660208501529183015260608201526080016101b4565b3480156104c257600080fd5b506102376104d13660046124fe565b6111af565b3480156104e257600080fd5b506102376104f1366004612203565b6112c8565b34801561050257600080fd5b50610516610511366004612168565b61135b565b6040516101b49190612521565b34801561052f57600080fd5b5061054361053e366004612168565b6113fd565b6040516101b49190612591565b6000600160e060020a031982167f4906490600000000000000000000000000000000000000000000000000000000148061058e575061058e8261162d565b92915050565b6060600080546105a390612611565b80601f01602080910402602001604051908101604052809291908181526020018280546105cf90612611565b801561061c5780601f106105f15761010080835404028352916020019161061c565b820191906000526020600020905b8154815290600101906020018083116105ff57829003601f168201915b5050505050905090565b6000610631826116c8565b50600090815260046020526040902054600160a060020a031690565b60006106588261099e565b905080600160a060020a031683600160a060020a0316036106e95760405160e560020a62461bcd02815260206004820152602160248201527f4552433732313a20617070726f76616c20746f2063757272656e74206f776e6560448201527f720000000000000000000000000000000000000000000000000000000000000060648201526084015b60405180910390fd5b33600160a060020a03821614806107055750610705813361043d565b61077a5760405160e560020a62461bcd02815260206004820152603d60248201527f4552433732313a20617070726f76652063616c6c6572206973206e6f7420746f60448201527f6b656e206f776e6572206f7220617070726f76656420666f7220616c6c00000060648201526084016106e0565b6107848383611720565b505050565b610793338261178e565b6107b25760405160e560020a62461bcd0281526004016106e09061264e565b61078483838361180c565b61078483838360405180602001604052806000815250610c9c565b60606000806107e660085490565b905060015b818111610845576107fb81611992565b8015610820575084600160a060020a03166108158261099e565b600160a060020a0316145b15610833578261082f816126ab565b9350505b8061083d816126ab565b9150506107eb565b5060008267ffffffffffffffff81111561086157610861612284565b60405190808252806020026020018201604052801561088a578160200160208202803683370190505b509050600060015b83811161090a576108a281611992565b80156108c7575086600160a060020a03166108bc8261099e565b600160a060020a0316145b156108f857808383815181106108df576108df6126d5565b6020908102919091010152816108f4816126ab565b9250505b80610902816126ab565b915050610892565b509095945050505050565b81336109208261099e565b600160a060020a0316146109495760405160e560020a62461bcd0281526004016106e0906126ee565b600083815260096020526040908190206004018390555183907fb0ac3f488e66b381e32267d6ee431ad9c9765c5156f8baf98db25c1ce61bb8e5906109919085815260200190565b60405180910390a2505050565b600081815260026020526040812054600160a060020a03168061058e5760405160e560020a62461bcd02815260206004820152601860248201527f4552433732313a20696e76616c696420746f6b656e204944000000000000000060448201526064016106e0565b6000600160a060020a038216610a875760405160e560020a62461bcd02815260206004820152602960248201527f4552433732313a2061646472657373207a65726f206973206e6f74206120766160448201527f6c6964206f776e6572000000000000000000000000000000000000000000000060648201526084016106e0565b50600160a060020a031660009081526003602052604090205490565b610aab6119af565b610ab56000611a0c565b565b6000610ac7600880546001019055565b6000610ad260085490565b9050610ade3382611a5e565b610ae88184611bd4565b6040805160e081018252828152602080820189815282840189905233606084015260006080840181905260a0840181905260c0840189905285815260099092529290208151815591519091906001820190610b439082612799565b50604082015160028201556060820151600382018054600160a060020a031916600160a060020a039092169190911790556080820151600482015560a082015160058201805460ff191691151591909117905560c08201516006820190610baa9082612799565b50506040805160808101825260008082523360208084018281528486018481524260608701908152898652600a84528786208054600180820183559188529490962087516004909502018054600160a060020a0319908116600160a060020a039687161782559351968101805490941696909416959095179091555160028201559151600390920191909155915190925083917f0a14f5ae2f9ee538270143056894f8128fb116c653fb2fde847dcebdd181622e91610c6a918b9161285f565b60405180910390a25090505b949350505050565b6060600180546105a390612611565b610c98338383611ca2565b5050565b610ca6338361178e565b610cc55760405160e560020a62461bcd0281526004016106e09061264e565b610cd184848484611d73565b50505050565b6060610ce2826116c8565b60008281526006602052604081208054610cfb90612611565b80601f0160208091040260200160405190810160405280929190818152602001828054610d2790612611565b8015610d745780601f10610d4957610100808354040283529160200191610d74565b820191906000526020600020905b815481529060010190602001808311610d5757829003601f168201915b505050505090506000610d9260408051602081019091526000815290565b90508051600003610da4575092915050565b815115610dd6578082604051602001610dbe92919061288a565b60405160208183030381529060405292505050919050565b610c7684611da9565b60008181526009602052604090206005015460ff16610e435760405160e560020a62461bcd02815260206004820152601460248201527f4c616e64206973206e6f7420666f722073616c6500000000000000000000000060448201526064016106e0565b600081815260096020526040902060040154341015610ea75760405160e560020a62461bcd02815260206004820152601460248201527f496e73756666696369656e74207061796d656e7400000000000000000000000060448201526064016106e0565b6000610eb28261099e565b604051909150600160a060020a038216903480156108fc02916000818181858888f19350505050158015610eea573d6000803e3d6000fd5b5060408051608081018252600160a060020a03808416825233602080840182815234858701908152426060870190815260008a8152600a8552978820805460018181018355918a529490982087516004909502018054948716600160a060020a03199586161781559251978301805498909616979093169690961790935593516002830155925160039091015590610f849083908561180c565b600083815260096020908152604091829020600381018054600160a060020a031916339081179091556005909101805460ff191690558251600160a060020a038616815291820152349181019190915283907f20b4587b96d546fb8dda06f8a11cc80fd5debab09bf4795380734af50f3d259c90606001610991565b6009602052600090815260409020805460018201805491929161102290612611565b80601f016020809104026020016040519081016040528092919081815260200182805461104e90612611565b801561109b5780601f106110705761010080835404028352916020019161109b565b820191906000526020600020905b81548152906001019060200180831161107e57829003601f168201915b505050600284015460038501546004860154600587015460068801805497989497600160a060020a03909416965091945060ff1692916110da90612611565b80601f016020809104026020016040519081016040528092919081815260200182805461110690612611565b80156111535780601f1061112857610100808354040283529160200191611153565b820191906000526020600020905b81548152906001019060200180831161113657829003601f168201915b5050505050905087565b600a602052816000526040600020818154811061117957600080fd5b60009182526020909120600490910201805460018201546002830154600390930154600160a060020a0392831695509116925084565b81336111ba8261099e565b600160a060020a0316146111e35760405160e560020a62461bcd0281526004016106e0906126ee565b600083815260096020526040902060040154151580611200575081155b6112755760405160e560020a62461bcd02815260206004820152602960248201527f5072696365206d75737420626520736574206265666f7265206c697374696e6760448201527f20666f722073616c65000000000000000000000000000000000000000000000060648201526084016106e0565b600083815260096020908152604091829020600501805460ff1916851515908117909155915191825284917f410856f5b20bcc9d4f45bf60117c2194a3540a88fdb7e21d77ea376a576baf729101610991565b6112d06119af565b600160a060020a03811661134f5760405160e560020a62461bcd02815260206004820152602660248201527f4f776e61626c653a206e6577206f776e657220697320746865207a65726f206160448201527f646472657373000000000000000000000000000000000000000000000000000060648201526084016106e0565b61135881611a0c565b50565b6060600a6000838152602001908152602001600020805480602002602001604051908101604052809291908181526020016000905b828210156113f257600084815260209081902060408051608081018252600486029092018054600160a060020a039081168452600180830154909116848601526002820154928401929092526003015460608301529083529092019101611390565b505050509050919050565b6114486040518060e001604052806000815260200160608152602001600081526020016000600160a060020a0316815260200160008152602001600015158152602001606081525090565b61145182611992565b6114a05760405160e560020a62461bcd02815260206004820152601360248201527f4c616e6420646f6573206e6f742065786973740000000000000000000000000060448201526064016106e0565b600960008381526020019081526020016000206040518060e0016040529081600082015481526020016001820180546114d890612611565b80601f016020809104026020016040519081016040528092919081815260200182805461150490612611565b80156115515780601f1061152657610100808354040283529160200191611551565b820191906000526020600020905b81548152906001019060200180831161153457829003601f168201915b5050509183525050600282015460208201526003820154600160a060020a0316604082015260048201546060820152600582015460ff161515608082015260068201805460a0909201916115a490612611565b80601f01602080910402602001604051908101604052809291908181526020018280546115d090612611565b801561161d5780601f106115f25761010080835404028352916020019161161d565b820191906000526020600020905b81548152906001019060200180831161160057829003601f168201915b5050505050815250509050919050565b6000600160e060020a031982167f80ac58cd0000000000000000000000000000000000000000000000000000000014806116905750600160e060020a031982167f5b5e139f00000000000000000000000000000000000000000000000000000000145b8061058e57507f01ffc9a700000000000000000000000000000000000000000000000000000000600160e060020a031983161461058e565b6116d181611992565b6113585760405160e560020a62461bcd02815260206004820152601860248201527f4552433732313a20696e76616c696420746f6b656e204944000000000000000060448201526064016106e0565b60008181526004602052604090208054600160a060020a031916600160a060020a03841690811790915581906117558261099e565b600160a060020a03167f8c5be1e5ebec7d5bd14f71427d1e84f3dd0314c0f7b2291e5b200ac8c7c3b92560405160405180910390a45050565b60008061179a8361099e565b905080600160a060020a031684600160a060020a031614806117e15750600160a060020a0380821660009081526005602090815260408083209388168352929052205460ff165b80610c76575083600160a060020a03166117fa84610626565b600160a060020a031614949350505050565b82600160a060020a031661181f8261099e565b600160a060020a0316146118485760405160e560020a62461bcd0281526004016106e0906128b9565b600160a060020a0382166118c65760405160e560020a62461bcd028152602060048201526024808201527f4552433732313a207472616e7366657220746f20746865207a65726f2061646460448201527f726573730000000000000000000000000000000000000000000000000000000060648201526084016106e0565b82600160a060020a03166118d98261099e565b600160a060020a0316146119025760405160e560020a62461bcd0281526004016106e0906128b9565b60008181526004602090815260408083208054600160a060020a0319908116909155600160a060020a0387811680865260038552838620805460001901905590871680865283862080546001019055868652600290945282852080549092168417909155905184937fddf252ad1be2c89b69c2b068fc378daa952ba7f163c4a11628f55a4df523b3ef91a4505050565b600090815260026020526040902054600160a060020a0316151590565b600754600160a060020a03163314610ab55760405160e560020a62461bcd02815260206004820181905260248201527f4f776e61626c653a2063616c6c6572206973206e6f7420746865206f776e657260448201526064016106e0565b60078054600160a060020a03838116600160a060020a0319831681179093556040519116919082907f8be0079c531659141344cd1fd0a4f28419497f9722a3daafe3b4186f6b6457e090600090a35050565b600160a060020a038216611ab75760405160e560020a62461bcd02815260206004820181905260248201527f4552433732313a206d696e7420746f20746865207a65726f206164647265737360448201526064016106e0565b611ac081611992565b15611b105760405160e560020a62461bcd02815260206004820152601c60248201527f4552433732313a20746f6b656e20616c7265616479206d696e7465640000000060448201526064016106e0565b611b1981611992565b15611b695760405160e560020a62461bcd02815260206004820152601c60248201527f4552433732313a20746f6b656e20616c7265616479206d696e7465640000000060448201526064016106e0565b600160a060020a03821660008181526003602090815260408083208054600101905584835260029091528082208054600160a060020a0319168417905551839291907fddf252ad1be2c89b69c2b068fc378daa952ba7f163c4a11628f55a4df523b3ef908290a45050565b611bdd82611992565b611c525760405160e560020a62461bcd02815260206004820152602e60248201527f45524337323155524953746f726167653a2055524920736574206f66206e6f6e60448201527f6578697374656e7420746f6b656e00000000000000000000000000000000000060648201526084016106e0565b6000828152600660205260409020611c6a8282612799565b506040518281527ff8e1a15aba9398e019f0b49df1a4fde98ee17ae345cb5f6b5e2c27f5033e8ce79060200160405180910390a15050565b81600160a060020a031683600160a060020a031603611d065760405160e560020a62461bcd02815260206004820152601960248201527f4552433732313a20617070726f766520746f2063616c6c65720000000000000060448201526064016106e0565b600160a060020a03838116600081815260056020908152604080832094871680845294825291829020805460ff191686151590811790915591519182527f17307eab39ab6107e8899845ad3d59bd9653f200f220920489ca2b5937696c31910160405180910390a3505050565b611d7e84848461180c565b611d8a84848484611e1d565b610cd15760405160e560020a62461bcd0281526004016106e090612916565b6060611db4826116c8565b6000611dcb60408051602081019091526000815290565b90506000815111611deb5760405180602001604052806000815250611e16565b80611df584611f50565b604051602001611e0692919061288a565b6040516020818303038152906040525b9392505050565b6000600160a060020a0384163b15611f48576040517f150b7a02000000000000000000000000000000000000000000000000000000008152600160a060020a0385169063150b7a0290611e7a903390899088908890600401612973565b6020604051808303816000875af1925050508015611eb5575060408051601f3d908101601f19168201909252611eb2918101906129af565b60015b611f15573d808015611ee3576040519150601f19603f3d011682016040523d82523d6000602084013e611ee8565b606091505b508051600003611f0d5760405160e560020a62461bcd0281526004016106e090612916565b805181602001fd5b600160e060020a0319167f150b7a0200000000000000000000000000000000000000000000000000000000149050610c76565b506001610c76565b60606000611f5d83611ff0565b600101905060008167ffffffffffffffff811115611f7d57611f7d612284565b6040519080825280601f01601f191660200182016040528015611fa7576020820181803683370190505b5090508181016020015b600019017f3031323334353637383961626364656600000000000000000000000000000000600a86061a8153600a8504945084611fb157509392505050565b6000807a184f03e93ff9f4daa797ed6e38ed64bf6a1f0100000000000000008310612039577a184f03e93ff9f4daa797ed6e38ed64bf6a1f010000000000000000830492506040015b6d04ee2d6d415b85acef81000000008310612065576d04ee2d6d415b85acef8100000000830492506020015b662386f26fc10000831061208357662386f26fc10000830492506010015b6305f5e100831061209b576305f5e100830492506008015b61271083106120af57612710830492506004015b606483106120c1576064830492506002015b600a831061058e5760010192915050565b600160e060020a03198116811461135857600080fd5b6000602082840312156120fa57600080fd5b8135611e16816120d2565b60005b83811015612120578181015183820152602001612108565b50506000910152565b60008151808452612141816020860160208601612105565b601f01601f19169290920160200192915050565b602081526000611e166020830184612129565b60006020828403121561217a57600080fd5b5035919050565b8035600160a060020a038116811461219857600080fd5b919050565b600080604083850312156121b057600080fd5b6121b983612181565b946020939093013593505050565b6000806000606084860312156121dc57600080fd5b6121e584612181565b92506121f360208501612181565b9150604084013590509250925092565b60006020828403121561221557600080fd5b611e1682612181565b6020808252825182820181905260009190848201906040850190845b818110156122565783518352928401929184019160010161223a565b50909695505050505050565b6000806040838503121561227557600080fd5b50508035926020909101359150565b60e060020a634e487b7102600052604160045260246000fd5b600067ffffffffffffffff808411156122b8576122b8612284565b604051601f8501601f19908116603f011681019082821181831017156122e0576122e0612284565b816040528093508581528686860111156122f957600080fd5b858560208301376000602087830101525050509392505050565b600082601f83011261232457600080fd5b611e168383356020850161229d565b6000806000806080858703121561234957600080fd5b843567ffffffffffffffff8082111561236157600080fd5b61236d88838901612313565b955060208701359450604087013591508082111561238a57600080fd5b61239688838901612313565b935060608701359150808211156123ac57600080fd5b506123b987828801612313565b91505092959194509250565b8035801515811461219857600080fd5b600080604083850312156123e857600080fd5b6123f183612181565b91506123ff602084016123c5565b90509250929050565b6000806000806080858703121561241e57600080fd5b61242785612181565b935061243560208601612181565b925060408501359150606085013567ffffffffffffffff81111561245857600080fd5b8501601f8101871361246957600080fd5b6123b98782356020840161229d565b87815260e06020820152600061249160e0830189612129565b876040840152600160a060020a038716606084015285608084015284151560a084015282810360c08401526124c68185612129565b9a9950505050505050505050565b600080604083850312156124e757600080fd5b6124f083612181565b91506123ff60208401612181565b6000806040838503121561251157600080fd5b823591506123ff602084016123c5565b602080825282518282018190526000919060409081850190868401855b828110156125845781518051600160a060020a0390811686528782015116878601528581015186860152606090810151908501526080909301929085019060010161253e565b5091979650505050505050565b60208152815160208201526000602083015160e060408401526125b8610100840182612129565b905060408401516060840152600160a060020a036060850151166080840152608084015160a084015260a0840151151560c084015260c0840151601f198483030160e08501526126088282612129565b95945050505050565b60028104600182168061262557607f821691505b6020821081036126485760e060020a634e487b7102600052602260045260246000fd5b50919050565b6020808252602d908201527f4552433732313a2063616c6c6572206973206e6f7420746f6b656e206f776e6560408201527f72206f7220617070726f76656400000000000000000000000000000000000000606082015260800190565b6000600182016126ce5760e060020a634e487b7102600052601160045260246000fd5b5060010190565b60e060020a634e487b7102600052603260045260246000fd5b60208082526022908201527f596f7520617265206e6f7420746865206f776e6572206f662074686973206c6160408201527f6e64000000000000000000000000000000000000000000000000000000000000606082015260800190565b601f821115610784576000818152602081206020601f860104810160208610156127725750805b6020601f860104820191505b818110156127915782815560010161277e565b505050505050565b815167ffffffffffffffff8111156127b3576127b3612284565b6127c7816127c18454612611565b8461274b565b602080601f83116001811461280057600084156127e45750858301515b60028086026008870290910a6000190419821617865550612791565b600085815260208120601f198616915b8281101561282f57888601518255948401946001909101908401612810565b508582101561284f57878501516008601f88160260020a60001904191681555b5050505050600202600101905550565b6040815260006128726040830185612129565b9050600160a060020a03831660208301529392505050565b6000835161289c818460208801612105565b8351908301906128b0818360208801612105565b01949350505050565b60208082526025908201527f4552433732313a207472616e736665722066726f6d20696e636f72726563742060408201527f6f776e6572000000000000000000000000000000000000000000000000000000606082015260800190565b60208082526032908201527f4552433732313a207472616e7366657220746f206e6f6e20455243373231526560408201527f63656976657220696d706c656d656e7465720000000000000000000000000000606082015260800190565b6000600160a060020a038087168352808616602084015250836040830152608060608301526129a56080830184612129565b9695505050505050565b6000602082840312156129c157600080fd5b8151611e16816120d256fea26469706673582212201bf92622920877ae030fe48100feb3684fd946541c06c794852fa81b7022c5c264736f6c63430008150033",
  "immutableReferences": {},
  "source": "// SPDX-License-Identifier: MIT\r\npragma solidity ^0.8.0;\r\n\r\nimport \"@openzeppelin/contracts/token/ERC721/extensions/ERC721URIStorage.sol\";\r\nimport \"@openzeppelin/contracts/utils/Counters.sol\";\r\nimport \"@openzeppelin/contracts/access/Ownable.sol\";\r\n\r\ncontract LandRegistry is ERC721URIStorage, Ownable {\r\n    using Counters for Counters.Counter;\r\n    Counters.Counter private _tokenIds;\r\n    \r\n    // Cu trc d liu cho mt bt ng sn\r\n    struct Land {\r\n        uint256 id;\r\n        string location;\r\n        uint256 area; // din tch tnh bng mt vung\r\n        address owner;\r\n        uint256 price;\r\n        bool forSale;\r\n        string documentHash; // IPFS hash ca giy t lin quan\r\n    }\r\n\r\n    // Lu tr thng tin cc bt ng sn\r\n    mapping(uint256 => Land) public lands;\r\n    \r\n    // Lu tr lch s giao dch ca bt ng sn\r\n    struct Transaction {\r\n        address from;\r\n        address to;\r\n        uint256 price;\r\n        uint256 timestamp;\r\n    }\r\n    \r\n    // nh x t tokenId sang lch s giao dch\r\n    mapping(uint256 => Transaction[]) public transactionHistory;\r\n    \r\n    // S kin\r\n    event LandRegistered(uint256 indexed tokenId, string location, address owner);\r\n    event LandTransferred(uint256 indexed tokenId, address from, address to, uint256 price);\r\n    event LandPriceChanged(uint256 indexed tokenId, uint256 newPrice);\r\n    event LandForSale(uint256 indexed tokenId, bool isForSale);\r\n    \r\n    // Ch ch s hu hin ti ca t\r\n    modifier onlyLandOwner(uint256 tokenId) {\r\n        require(ownerOf(tokenId) == msg.sender, \"You are not the owner of this land\");\r\n        _;\r\n    }\r\n    \r\n    constructor() ERC721(\"LandRegistry\", \"LAND\") {}\r\n    \r\n    // ng k bt ng sn mi\r\n    function registerLand(\r\n        string memory location,\r\n        uint256 area,\r\n        string memory documentHash,\r\n        string memory tokenURI\r\n    ) public returns (uint256) {\r\n        _tokenIds.increment();\r\n        uint256 newTokenId = _tokenIds.current();\r\n        \r\n        _mint(msg.sender, newTokenId);\r\n        _setTokenURI(newTokenId, tokenURI);\r\n        \r\n        lands[newTokenId] = Land(\r\n            newTokenId,\r\n            location,\r\n            area,\r\n            msg.sender,\r\n            0,\r\n            false,\r\n            documentHash\r\n        );\r\n        \r\n        // Ghi nhn giao dch u tin (ng k)\r\n        Transaction memory newTransaction = Transaction(\r\n            address(0),\r\n            msg.sender,\r\n            0,\r\n            block.timestamp\r\n        );\r\n        transactionHistory[newTokenId].push(newTransaction);\r\n        \r\n        emit LandRegistered(newTokenId, location, msg.sender);\r\n        \r\n        return newTokenId;\r\n    }\r\n    \r\n    // Cp nht gi bt ng sn\r\n    function updateLandPrice(uint256 tokenId, uint256 price) public onlyLandOwner(tokenId) {\r\n        lands[tokenId].price = price;\r\n        emit LandPriceChanged(tokenId, price);\r\n    }\r\n    \r\n    // t/hy trng thi bn\r\n    function setForSale(uint256 tokenId, bool isForSale) public onlyLandOwner(tokenId) {\r\n        require(lands[tokenId].price > 0 || !isForSale, \"Price must be set before listing for sale\");\r\n        lands[tokenId].forSale = isForSale;\r\n        emit LandForSale(tokenId, isForSale);\r\n    }\r\n    \r\n    // Mua bt ng sn\r\n    function buyLand(uint256 tokenId) public payable {\r\n        require(lands[tokenId].forSale, \"Land is not for sale\");\r\n        require(msg.value >= lands[tokenId].price, \"Insufficient payment\");\r\n        \r\n        address seller = ownerOf(tokenId);\r\n        \r\n        // Thc hin giao dch\r\n        payable(seller).transfer(msg.value);\r\n        \r\n        // Cp nht lch s giao dch\r\n        Transaction memory newTransaction = Transaction(\r\n            seller,\r\n            msg.sender,\r\n            msg.value,\r\n            block.timestamp\r\n        );\r\n        transactionHistory[tokenId].push(newTransaction);\r\n        \r\n        // Chuyn nhng NFT\r\n        _transfer(seller, msg.sender, tokenId);\r\n        \r\n        // Cp nht thng tin bt ng sn\r\n        lands[tokenId].owner = msg.sender;\r\n        lands[tokenId].forSale = false;\r\n        \r\n        emit LandTransferred(tokenId, seller, msg.sender, msg.value);\r\n    }\r\n    \r\n    // Ly lch s giao dch ca bt ng sn\r\n    function getTransactionHistory(uint256 tokenId) public view returns (Transaction[] memory) {\r\n        return transactionHistory[tokenId];\r\n    }\r\n    \r\n    // Ly thng tin chi tit ca bt ng sn\r\n    function getLandDetails(uint256 tokenId) public view returns (Land memory) {\r\n        require(_exists(tokenId), \"Land does not exist\");\r\n        return lands[tokenId];\r\n    }\r\n    \r\n    // Ly tt c bt ng sn ca mt ngi dng\r\n    function getLandsByOwner(address owner) public view returns (uint256[] memory) {\r\n        uint256 landCount = 0;\r\n        uint256 totalLands = _tokenIds.current();\r\n        \r\n        // m s lng t thuc s hu ca owner\r\n        for (uint256 i = 1; i <= totalLands; i++) {\r\n            if (_exists(i) && ownerOf(i) == owner) {\r\n                landCount++;\r\n            }\r\n        }\r\n        \r\n        // To mng kt qu\r\n        uint256[] memory result = new uint256[](landCount);\r\n        uint256 index = 0;\r\n        \r\n        // Lc ra cc mnh t thuc s hu ca owner\r\n        for (uint256 i = 1; i <= totalLands; i++) {\r\n            if (_exists(i) && ownerOf(i) == owner) {\r\n                result[index] = i;\r\n                index++;\r\n            }\r\n        }\r\n        \r\n        return result;\r\n    }\r\n}",
  "sourcePath": "E:\\DApps\\Smartcontract_Blockchain\\contracts\\LandRegistry.sol",
  "compiler": {
    "name": "solc",
    "version": "0.8.21+commit.d9974bed.Emscripten.clang"
  },
  "schemaVersion": "3.4.16",
  "updatedAt": "2025-05-08T05:29:09.885Z",
  "devdoc": {
    "events": {
      "Approval(address,address,uint256)": {
        "details": "Emitted when `owner` enables `approved` to manage the `tokenId` token."
      },
      "ApprovalForAll(address,address,bool)": {
        "details": "Emitted when `owner` enables or disables (`approved`) `operator` to manage all of its assets."
      },
      "BatchMetadataUpdate(uint256,uint256)": {
        "details": "This event emits when the metadata of a range of tokens is changed. So that the third-party platforms such as NFT market could timely update the images and related attributes of the NFTs."
      },
      "MetadataUpdate(uint256)": {
        "details": "This event emits when the metadata of a token is changed. So that the third-party platforms such as NFT market could timely update the images and related attributes of the NFT."
      },
      "Transfer(address,address,uint256)": {
        "details": "Emitted when `tokenId` token is transferred from `from` to `to`."
      }
    },
    "kind": "dev",
    "methods": {
      "approve(address,uint256)": {
        "details": "See {IERC721-approve}."
      },
      "balanceOf(address)": {
        "details": "See {IERC721-balanceOf}."
      },
      "getApproved(uint256)": {
        "details": "See {IERC721-getApproved}."
      },
      "isApprovedForAll(address,address)": {
        "details": "See {IERC721-isApprovedForAll}."
      },
      "name()": {
        "details": "See {IERC721Metadata-name}."
      },
      "owner()": {
        "details": "Returns the address of the current owner."
      },
      "ownerOf(uint256)": {
        "details": "See {IERC721-ownerOf}."
      },
      "renounceOwnership()": {
        "details": "Leaves the contract without owner. It will not be possible to call `onlyOwner` functions. Can only be called by the current owner. NOTE: Renouncing ownership will leave the contract without an owner, thereby disabling any functionality that is only available to the owner."
      },
      "safeTransferFrom(address,address,uint256)": {
        "details": "See {IERC721-safeTransferFrom}."
      },
      "safeTransferFrom(address,address,uint256,bytes)": {
        "details": "See {IERC721-safeTransferFrom}."
      },
      "setApprovalForAll(address,bool)": {
        "details": "See {IERC721-setApprovalForAll}."
      },
      "supportsInterface(bytes4)": {
        "details": "See {IERC165-supportsInterface}"
      },
      "symbol()": {
        "details": "See {IERC721Metadata-symbol}."
      },
      "tokenURI(uint256)": {
        "details": "See {IERC721Metadata-tokenURI}."
      },
      "transferFrom(address,address,uint256)": {
        "details": "See {IERC721-transferFrom}."
      },
      "transferOwnership(address)": {
        "details": "Transfers ownership of the contract to a new account (`newOwner`). Can only be called by the current owner."
      }
    },
    "version": 1
  },
  "userdoc": {
    "kind": "user",
    "methods": {},
    "version": 1
  }
}